:020000040800F2
:100000000004002047010008C90F0008CB0F0008BA
:10001000CF0F0008D30F0008D70F00080000000022
:10002000000000000000000000000000DB0F0008DE
:10003000DD0F000800000000DF0F0008E10F0008DE
:1000400067010008670100086701000867010008F0
:1000500067010008670100086701000867010008E0
:1000600067010008670100086701000867010008D0
:1000700067010008670100086701000867010008C0
:1000800067010008670100086701000867010008B0
:1000900067010008670100086701000867010008A0
:1000A0006701000867010008670100086701000890
:1000B0006701000867010008670100086701000880
:1000C0006701000867010008670100086701000870
:1000D00067010008EF1000086701000867010008C9
:1000E0006701000867010008670100086701000850
:1000F0006701000867010008670100086701000840
:10010000670100086701000867010008670100082F
:10011000670100086701000867010008670100081F
:10012000670100086701000867010008670100080F
:10013000DFF80CD004F0B6FB00480047750100085A
:1001400020060020704708488047084981F3088846
:1001500007480047FEE7FEE7FEE7FEE7FEE7FEE7AB
:10016000FEE7FEE7FEE7FEE7450100082006002067
:1001700031010008BCB0002500BF00203990814645
:10018000834600BF28212DA803F0B5FC00202C9049
:1001900000BF2B9000BF00242A90D64903C9CDE9A7
:1001A000280100BF0020279026902590D249D348EF
:1001B000CDE92210D249D348CDE92010D249D34805
:1001C000CDE91E10D248D349CDE91C01D249CB4814
:1001D000D138CDE91A10D149D148CDE91810D1490B
:1001E000D148CDE91610D149D148CDE91410D148F4
:1001F000D149CDE91201D149D148CDE91010D149F9
:10020000D148CDE90E10D149D148CDE90C1003F009
:1002100041FC00F0FAFE012001F024FB4FF4807154
:10022000CC4801F0E4FF01F02AFB022001F0D8FBEA
:10023000002001F0E0FB4FF48061C74801F0D9FFD6
:10024000012001F095FB012001F00CFB01F01EFDE7
:10025000012001F007FB01F020F801F003FA012072
:1002600001F000FB022300221146102001F032F9B8
:100270004FF49851202001F046F9472140F2E73031
:1002800001F046FE01F066FEF9E3002001F0B3FB49
:100290004FF48061B04801F0ACFF00BF00F055FFA3
:1002A0000128FBD1ADA004F0BFFCB2A004F0BCFC5F
:1002B00000202590B84804F0B7FCB8A004F0B4FCC6
:1002C000C0483B9008E0C0A004F0AEFCC7A004F01A
:1002D000ABFC00F020FF3B90D2493B9804F04EF974
:1002E000F1D3D1493B9804F03FF9ECD33B9804F0AB
:1002F0000CF902460B46CDE90A01CC4804F094FC07
:10030000CBA004F091FC4FF07E503A9008E0D3A0CF
:1003100004F08AFCDAA004F087FC00F0FCFE3A90BE
:10032000C0493A9804F02AF9F1D3BF493A9804F049
:100330001BF9ECD33A9804F0E8F802460B46CDE9F5
:100340000A01DDA004F070FCEAA004F06DFC642555
:100350000020269066E0012D07D140F2765128203A
:1003600001F0DFF8012026905CE0052D07D140F276
:100370007451282001F0D5F80120269052E00A2D72
:1003800007D140F27351282001F0CBF801202690CC
:1003900048E0142D07D140F27151282001F0C1F836
:1003A000012026903EE0322D07D14FF4AE61282087
:1003B00001F0B7F80120269034E0642D07D140F217
:1003C0006E51282001F0ADF8012026902AE0C82DBA
:1003D00007D140F26D51282001F0A3F801202690AA
:1003E00020E0B5F5FA7F07D140F26B51282001F0EB
:1003F00098F80120269015E0B5F57A7F07D140F2F4
:100400006A51282001F08DF8012026900AE0002092
:100410002690C04804F008FCBFA004F005FC00F0E2
:1004200094FE05462698002895D02946C5A004F0DC
:10043000FBFBCEA004F0F8FB01202A902A9838B1EB
:10044000D4A004F0F1FB3B98399000202B9006E0FB
:10045000DCA004F0E9FB3A98399001202B9042F29D
:100460001074012C02D14FF47A7415E0022C02D1E1
:1004700041F2883410E0032C02D142F210740BE0F8
:10048000042C02D14CF2503406E0052C01D1D94C99
:1004900002E0062C00D1D84C00F057FE2790279898
:1004A000012806D128A801F0D6FCD4A004F0BCFB9A
:1004B00005E028A801F0E0FCD9A004F0B5FBE2A01B
:1004C00004F0B2FB4FF0010908E0EBA004F0ACFB34
:1004D000F2A004F0A9FB00F038FE8146B9F1140F38
:1004E000F3DCB9F1010FF0DB4946F8A004F09CFB06
:1004F00004E200000C550008713D0AD7A370EB3FE1
:10050000211A828879FB48BF5A643BDF4F8DEB3F4D
:10051000F1564C5B125629BF8FE4F21F0BCCD099D9
:10052000307116BFECC039234A7BEB3FF96273FE92
:10053000BB78EEBEB0726891ED7CEB3FBC09CD9408
:100540002727E2BEF6285C8FC2F528C0264A087726
:10055000E3B4A23E00080140000C01400D0A5374B0
:10056000617274206D6561737572696E67210D0A21
:10057000000000000D0A43686F6F736520746865A2
:10058000206D6561737572656D656E74206D65743F
:10059000686F643A0D0A0000545500080D0A506C4B
:1005A0006561736520656E7465722074686520737B
:1005B00074617274696E6720766F6C746167653AF6
:1005C0000D0A0000CDCC4CBEB6D4B2BBC6F0A3AC75
:1005D000C4FACAE4C8EBB5C4B5E7D1B9CFC2CFDE1F
:1005E000B3ACB3F6B7B6CEA70D0A00000AC7EBD678
:1005F000D8D0C2CAE4C8EBB5E7D1B9CFC2CFDE28A4
:10060000B5A5CEBB5629A3BA28C7EBCEF0B3ACB381
:10061000F62D3556B5BD2B3556B5C4B7B6CEA72980
:100620000D0A00000000A0400000A0C0BC5500085A
:100630000D0A506C6561736520656E746572207477
:100640006865207465726D696E6174696F6E20767D
:100650006F6C746167653A0D0A000000B6D4B2BBD6
:10066000C6F0A3ACC4FACAE4C8EBB5C4B5E7D1B9C7
:10067000C9CFCFDEB3ACB3F6B7B6CEA70D0A000034
:100680000AC7EBD6D8D0C2CAE4C8EBB5E7D1B9C91E
:10069000CFCFDE28B5A5CEBB5629A3BA28C7EBCE4F
:1006A000F0B3ACB3F62D3556B5BD2B3556B5C4B742
:1006B000B6CEA7290D0A000053657420757020730B
:1006C00075636365737366756C6C79212054686516
:1006D00020766F6C74616765206C696D6974207930
:1006E0006F7520656E7465722069733A252E3366C6
:1006F000560D0A000D0A506C6561736520656E74B5
:10070000657220746865207363616E207261746520
:100710003A0D0A0000560008C7EBD6D8D0C2CAE48A
:10072000C8EBC9A8C3E8CBD9C2CAA3BA28212121E2
:10073000D7A2D2E2B5A5CEBBCAC76D562F73290D7D
:100740000A000000546865207363616E2072617452
:100750006520796F7520656E7465726564206973B4
:100760003A25646D562F730D0A0000000D0A506C77
:100770006561736520656E746572207468652073A9
:1007800063616E20646972656374696F6E3A0D0A05
:1007900000000000546865207363616E2064697214
:1007A000656374696F6E20796F7520656E7465720C
:1007B000656420697320706F7369746976652E0DA6
:1007C0000A000000546865207363616E20646972DA
:1007D000656374696F6E20796F7520656E746572DC
:1007E000656420697320726576657273652E0D0AE3
:1007F00000000000A086010040420F00596F7520E4
:1008000068617665207475726E6564206F6E206312
:10081000616C6962726174696F6E0D0A000000009C
:10082000596F752068617665206E6F7420747572DB
:100830006E6564206F6E2063616C696272617469B9
:100840006F6E0D0A000000000D0A506C6561736543
:1008500020656E74657220746865206E756D6265C2
:1008600072206F662073616D706C696E6720706FA7
:10087000696E74733A0D0A00B6D4B2BBC6F0A3AC6D
:10088000C4FACAE4C8EBB5C4B2C9D1F9B5E3CAFD2C
:10089000B3ACB3F6B7B6CEA70D0A00000AC7EBD6C5
:1008A000D8D0C2CAE4C8EBB2C9D1F9B5E3CAFDA336
:1008B000BA28C7EBCEF0B3ACB3F631B5BD3130B525
:1008C000C4B7B6CEA7290D0A000000005468652001
:1008D0006E756D626572206F662073616D706C69F4
:1008E0006E6720706F696E747320796F7520656E06
:1008F0007465722069733A25640D0A00E2A004F061
:1009000093F94FF0020B08E0E7A004F08DF9EFA097
:1009100004F08AF900F019FC8346BBF1320FF3DCD6
:10092000BBF1010FF0DB5946F5A004F07DF94FF45F
:10093000004000F020FE4FF4807000F027FE0221FE
:10094000102000F0A0FD01460B90F6A004F06CF919
:100950000221202000F097FD01460B90F7A004F043
:1009600063F90221282000F08EFD01460B90F9A0CA
:1009700004F05AF90221012000F085FD01460B9098
:10098000FAA004F051F90221084600F07CFD01466E
:100990000B90FCA004F048F90321302000F073FD17
:1009A00028900321382000F06EFD2990FAA02899A4
:1009B00004F03AF9FEA0299904F036F9002139989B
:1009C00003F0D2FD12D24FF08E41399803F054FB60
:1009D000FD49099003F082FBFC490A9003F0F4FA08
:1009E0000B9003F05FFD80B238900DE04FF08E4128
:1009F000399803F041FBF4490A9003F06FFB0B9028
:100A000003F050FD80B23890642001F0B8FA4FF442
:100A10008061EF4801F0EBFB389800F0CBFF4FF41A
:100A20007A710BFB01F001F0AAFA4FF48051E9480A
:100A300001F0DDFB4FF0000AD04605E000202DA9B3
:100A400041F8280008F10108C845F7DBACE2DDE910
:100A5000390103F093FD23D201202B90259878B122
:100A60003A9803F052FDDC4ADC4BCDE9080103F073
:100A700014FCCDE90A0103F05BFD39900EE095E22C
:100A80003A9803F042FDD64AD64BCDE9080103F06F
:100A900004FCCDE90A0103F04BFD39900AF1010A8B
:100AA0003B99399803F060FD22D200202B902598C5
:100AB00070B13B9803F029FDC74AC84BCDE9080146
:100AC00003F04AFBCDE90A0103F032FD39900DE055
:100AD0003B9803F01AFDC24AC24BCDE9080103F06E
:100AE0003BFBCDE90A0103F023FD39900AF1010A2D
:100AF000BAF10A0F00DB58E20021399803F034FD07
:100B000012D24FF08E41399803F0B6FAAE490990EF
:100B100003F0E4FAAD490A9003F056FA0B9003F0A3
:100B2000C1FC80B238900DE04FF08E41399803F04F
:100B3000A3FAA5490A9003F0D1FA0B9003F0B2FC96
:100B400080B23890389800F035FFBAF1C80F09D05C
:100B5000399803F0DAFC02460B46CDE90A01A2A05F
:100B600004F062F82B98F8B9259870B1399803F021
:100B7000CCFC994A994BCDE9080103F0EDFACDE997
:100B80000A0103F0D5FC39902DE0399803F0BDFC43
:100B9000934A944BCDE9080103F0DEFACDE90A014E
:100BA00003F0C6FC39901EE0259870B1399803F027
:100BB000ACFC894A894BCDE9080103F06EFBCDE915
:100BC0000A0103F0B5FC39900DE0399803F09DFC63
:100BD000834A844BCDE9080103F05FFBCDE90A01AC
:100BE00003F0A6FC3990284603F03EFC02460B4673
:100BF000CDE9080100207E4903F0C7FBCDE90A01D9
:100C000003F064FC2490249814382490249801F074
:100C1000B6F900202C9000BF8046FBE000F0E0FC1D
:100C200037903799A1F5000003F01EFC714A724B12
:100C3000CDE9000103F037FB0022704BCDE9020142
:100C400003F0A3FB6E4A6F4BCDE9040103F02BFBCD
:100C500000226D4BCDE9060103F097FB5E4A6B4B1A
:100C6000CDE9080103F01FFBCDE90A0103F060FCA8
:100C70002DA941F828002DA850F828102C9803F031
:100C8000A3F92C90C4E000000D0A506C65617365F7
:100C900020656E74657220612072657374207469BA
:100CA0006D653A0D0A000000B6D4B2BBC6F0A3AC25
:100CB000C4FACAE4C8EBB5C4BEB2CFA2CAB1BCE4A0
:100CC000B3ACB3F6B7B6CEA70D0A00000AC7EBD691
:100CD000D8D0C2CAE4C8EBBEB2CFA2CAB1BCE42825
:100CE000B5A5CEBB7329A3BAC7EBCEF0B3ACB3F6B0
:100CF00031B5BD3130B5C4B7B6CEA7290D0A000055
:100D00005468652071756965742074696D65207912
:100D10006F7520656E7465722069733A2564730D72
:100D20000A0000000D0A43483052454720646174B0
:100D300061203D202558200D0A00000053455455E0
:100D400050434F4E302064617461203D202558206F
:100D50000D0A000046494C54434F4E3020646174E4
:100D600061203D202558200D0A0000004144434DDC
:100D70004F44452064617461203D202558200D0AB0
:100D80000000000049464D4F4445206461746120D5
:100D90003D202558200D0A004F46465345547265A4
:100DA000672064617461203D202558200D0A0000F1
:100DB0004741494E7265672064617461203D20257A
:100DC00058200D0A0A0000000000204100FF7F4764
:100DD000000C0140000801409A9999999999D93FCE
:100DE000FCA9F1D24D62503F252E33662C20000025
:100DF00000408F40CBA145B6F3FD034000006041A9
:100E00007B14AE47E1FA2D40000024409999E93F58
:100E100008F10108C845FFF601AF204603F035FB95
:100E2000CDE90A01484603F01FFBCDE906012C98E5
:100E300003F06BFB00225E4BCDE9020103F033FAB5
:100E4000CDE90401DDE9062303F09FFACDE90801AD
:100E5000DDE90A2303F099FA06460F46B4F57A7FD6
:100E600016D10022534BDDE9200103F08EFA324601
:100E70003B46CDE90A01DDE9220103F014FACDE990
:100E80000801DDE90A2303F008FA06460F4683E06D
:100E900041F28830844216D10022464BDDE91C0124
:100EA00003F073FA32463B46CDE90A01DDE91E0143
:100EB00003F0F9F9CDE90801DDE90A2303F0EDF9C2
:100EC00006460F4668E042F21070844216D10022B6
:100ED000384BDDE9180103F058FA32463B46CDE9BC
:100EE0000A01DDE91A0103F0DEF9CDE90801DDE9C7
:100EF0000A2303F0D2F906460F464DE04CF250307B
:100F0000844216D100222B4BDDE9140103F03DFA97
:100F100032463B46CDE90A01DDE9160103F0C3F98B
:100F2000CDE90801DDE90A2303F0B7F906460F46CB
:100F300032E02148844216D100221E4BDDE9100127
:100F400003F023FA32463B46CDE90A01DDE91201FE
:100F500003F0A9F9CDE90801DDE90A2303F09DF9C1
:100F600006460F4618E01548844215D10022114B61
:100F7000DDE90C0103F009FA32463B46CDE90A01EE
:100F8000DDE90E0103F08FF9CDE90801DDE90A235F
:100F900003F0E2F806460F46BAF10A0F04D03246D3
:100FA0003B4607A003F040FE51E500BFFFF76DB9D7
:100FB0000000F03F00408F40A086010040420F003B
:100FC000252E34650D0A0000704700BFFEE700BF04
:100FD000FEE700BFFEE700BFFEE7704770477047BF
:100FE0007047000008B54FF4A06001F08FFE252087
:100FF0008DF8000001208DF801008DF802008DF8B9
:101000000300684601F087FE08BD00B585B00121E8
:1010100044F2040001F0DAFA4FF40070ADF8100069
:1010200018208DF8130003208DF8120004A95448ED
:1010300001F030F84FF48060ADF8100004208DF816
:10104000130004A94E4801F025F84FF40060ADF8F4
:10105000100018208DF8130003208DF8120004A949
:10106000474801F017F84FF48070ADF810001020D9
:101070008DF8130003208DF8120004A9404801F0F8
:1010800009F84FF400613E4801F0B3F84FF41650F0
:1010900000900020ADF80400ADF80600ADF808009F
:1010A000ADF80C000C20ADF80A006946354801F097
:1010B0003EFB0121334801F0A8FBFFF793FF01221B
:1010C00040F225512F4801F0ACFB05B000BD70B5D2
:1010D00004460D46E1B22B4801F0FFFB00BF294852
:1010E000008800F080000028F9D0204670BD10B5BF
:1010F00040F22551234801F053FC58B1214801F03A
:10110000F0FBC1B2204802880088401C1E4B1880AA
:101110001E48815410BD08B513E01B48008868B113
:101120006A461BA1194802F0F1FC4FF48061174890
:1011300002F0E1FC00201449088003E00A2000F0DE
:1011400091FBEAE700BF009808BD08B513E00E4820
:10115000008868B16A460FA10C4802F0D7FC4FF432
:1011600080610A4802F0C7FC00200749088003E0BC
:101170000A2000F077FBEAE700BF009808BD0000F6
:101180000008014000380140000000201C00002041
:10119000256600002564000008B501210C2001F03F
:1011A00015FA4FF48050ADF8000010208DF80300C0
:1011B00003208DF802006946FA4800F06BFF4FF4F7
:1011C0000050ADF8000018208DF8030003208DF8C2
:1011D00002006946F34800F05DFF4FF48040ADF82F
:1011E000000018208DF8030003208DF802006946E6
:1011F000EC4800F04FFF4FF40040ADF8000018201D
:101200008DF8030003208DF802006946E54800F0E0
:1012100041FF4FF48050ADF8000010208DF803001E
:1012200003208DF802006946DF4800F033FF4FF4D9
:101230008051DC4800F0DBFF4FF48051DA4800F0C9
:10124000D8FF08BD00B585B00121880301F0CBF9B6
:101250001020ADF80C000120ADF808000220ADF818
:1012600006000720ADF810000020ADF80400ADF82E
:101270000000ADF80E004FF48270ADF802004FF49C
:101280000070ADF80A006946C84801F0EBFB012187
:10129000C64801F084FC05B000BD10B5FFF77CFF27
:1012A000FFF7D0FF10BD10B504462146C0A003F0E3
:1012B000BBFC002010BD70B504464FF4805507E01C
:1012C0002800A5F1010503D10220FFF7ECFF70BD56
:1012D0000221B64801F0E7FC0028F1D02146B348CE
:1012E00001F08EFC4FF4805507E02800A5F10105C0
:1012F00003D10320FFF7D7FFE9E70121AB4801F055
:10130000D2FC0028F1D0A94801F07CFCC6B2012033
:10131000DDE7FEB505460E46002400200090019052
:10132000029001242CE04FF4805707E03800A7F129
:10133000010703D10420FFF7B6FFFEBD02219B4841
:1013400001F0B1FC0028F1D0295D984801F058FC6B
:101350004FF4805707E03800A7F1010703D10520BB
:10136000FFF7A1FFE9E70121904801F09CFC00286C
:10137000F1D08E4801F046FCC0B20DF80400641CA8
:10138000B442D0DD0120D8E72DE9FC410546002418
:10139000002001900027009001242DE04FF480569A
:1013A00008E03000A6F1010604D10620FFF77BFF1C
:1013B000BDE8FC8102217D4801F075FC0028F0D0D9
:1013C0001DF80410794801F01BFC4FF4805607E02B
:1013D0003000A6F1010603D10720FFF764FFE7E71D
:1013E0000121724801F05FFC0028F1D06F4801F044
:1013F00009FC01A90855641CAC42CFDD012404E0BE
:1014000001A8005D00EB0727641CAC42F8DD3846FC
:10141000CEE770B504460D46002644EA0506304680
:10142000FFF749FF70BD2DE9FC4106460F46144603
:10143000002001900090E8462546009701208DF895
:10144000040007E098F8000001A9485508F10108D8
:10145000681EC5B2002DF5D14FF48051514800F0FF
:10146000C8FE31460020FFF7D4FF214601A8FFF750
:1014700050FF012000F093FA4FF48051494800F0EA
:10148000B6FEBDE8FC8170B504460D4600264FF45B
:101490008051444800F0ADFE21464020FFF7B9FFDF
:1014A0002846FFF771FF0646012000F078FA4FF456
:1014B00080513C4800F09BFE304670BD10B50024C2
:1014C00002210720FFF7DFFF0446012000F067FA42
:1014D000204610BD2DE9F04707460C4615461E462E
:1014E0004FF000084FF002094FF4004040EA04308A
:1014F00040EA451040EA06084A4641463846FFF7AA
:1015000092FFBDE8F0872DE9F04105460C46002624
:10151000022726463A4631462846FFF784FFBDE8B3
:10152000F0812DE9F04104460D46002602272E46A3
:10153000E0B23A463146FFF776FFBDE8F0812DE98B
:10154000F04104460D46002603272E46E0B23A46F7
:101550003146FFF768FFBDE8F0812DE9F041044610
:101560000D46002603272E46E0B23A463146FFF7E5
:101570005AFFBDE8F08110B5044602222146012041
:10158000FFF751FF012000F00AFA10BD10B5044624
:10159000022221461046FFF746FF012000F0FFF926
:1015A00010BD0000000C0140000801400038004060
:1015B0003C3C2D454550524F4D2D4552524F522DDA
:1015C0003E3E20535049B5C8B4FDB3ACCAB1A3A147
:1015D0006572726F72436F64653D25640A00000096
:1015E00070B500240325002602210846FFF74BFFB3
:1015F0000446C4F3801018B904F0010000B910E0EB
:10160000C4F3801020B904F0010008B1022508E0FD
:10161000C4F3801020B104F0010008B9042500E0F3
:1016200003254FF48070FFF7B1FF00BF01210020B8
:10163000FFF729FFC0F3C0100028F7D14FF4805105
:10164000744800F0D6FD04214020FFF7E2FE284652
:10165000FFF79AFE06464FF480516E4800F0C7FD32
:10166000304670BD0EB56CA207CA8DE807004FF476
:101670008051684800F0BDFD08216846FFF749FE2B
:101680004FF48051634800F0B2FD012000F087F96B
:101690000EBD2DE9F0474FF480615E4800F0A7FDD4
:1016A00000250021284602F05FFF11D24FF08E4145
:1016B000284602F0E1FC81465A4902F00FFD074638
:1016C000594902F081FC064602F0ECFE84B20CE0BF
:1016D0004FF08E41284602F0CFFC0746514902F0F8
:1016E000FDFC064602F0DEFE84B2204600F062F900
:1016F0004FF480514D4800F07AFD48F24000FFF76A
:101700003AFF00BF01210020FFF7BDFEC0F3C0106B
:101710000028F7D1052000F0A5F848F26000FFF797
:101720002AFF00BF01210020FFF7ADFEC0F3C0106B
:101730000028F7D103213020FFF7A5FE804641465F
:101740003BA003F071FA4FF48061324800F051FD84
:101750004FF48051354800F04CFD4046BDE8F0871D
:101760002DE9F0474FF480612A4800F040FD364DE6
:101770000021284602F0F8FE11D24FF08E41284693
:1017800002F07AFC8146274902F0A8FC0746264968
:1017900002F01AFC064602F085FE84B20CE04FF01F
:1017A0008E41284602F068FC07461E4902F096FC6E
:1017B000064602F077FE84B2204600F0FBF84FF4B4
:1017C00080511A4800F013FD052000F04BF848F254
:1017D0007000FFF7D0FE00BF01210020FFF753FE8D
:1017E000C0F3C0100028F7D103213820FFF74BFECB
:1017F0008046414615A003F017FA4FF48061054872
:1018000000F0F7FC4FF48051084800F0F2FC40462D
:10181000BDE8F087000C0140FFFFFFFFFFFFFFFF67
:10182000FF0000000000204100FF7F47000801404A
:101830004F46465345547265672064617461203D8C
:10184000202558200D0A0000000040404741494E25
:101850007265672064617461203D202558200D0A5F
:1018600000000000002107E0002200E0521C42F6C8
:10187000E0639A42FAD3491C8142F5D3704708B518
:1018800001210C2000F0A2FE4FF48060ADF80000B2
:1018900010208DF8030003208DF80200694661488E
:1018A00000F0F8FB0220ADF8000010208DF80300D6
:1018B00003208DF8020069465A4800F0EBFB042033
:1018C000ADF8000010208DF8030003208DF8020011
:1018D0006946554800F0DEFB0221524800F087FCC3
:1018E0004FF480614F4800F082FC04214E4800F024
:1018F0007EFC4FF4FA70FFF7B5FF00F0FFF808BD6B
:101900002DE9FC4106460F46144600200190009048
:10191000E846254640EA06503843009001208DF8FD
:10192000040007E098F8000001A9485508F10108F3
:10193000681EC5B2002DF5D1214601A800F0ECF8D3
:10194000BDE8FC81F8B504460E4600200090002555
:1019500001208DF80000C00540EA0450000C8DF80D
:1019600001000321684600F01AF905462846F8BD33
:1019700070B504460025002603210220FFF7E2FF90
:10198000054625F004050CB9012000E0002045EAD9
:101990008006032231460220FFF7B2FF70BD00210E
:1019A00005E0002200E0521C0C2AFCD3491C8142B5
:1019B000F7D3704710B50446210103220120FFF739
:1019C0009FFF0520FFF7EBFF0221164800F011FCF6
:1019D0000520FFF7E4FF0221124800F008FC10BDCB
:1019E00010B50446032221460220FFF789FF0A2092
:1019F000FFF738FF10BD10B50446032221461046FC
:101A0000FFF77EFF0A20FFF72DFF10BD10B504463B
:101A1000032221460420FFF773FF0A20FFF722FF6D
:101A200010BD0000000C01400008014008B5012174
:101A3000042000F0CBFD1020ADF800008DF803006D
:101A400003208DF802006946814800F023FB202026
:101A5000ADF8000018208DF8030003208DF8020077
:101A600069467B4800F016FB4020ADF800001820C6
:101A70008DF8030003208DF802006946744800F0D9
:101A800009FB8020ADF8000018208DF8030003202A
:101A90008DF8020069466E4800F0FCFA10216C488F
:101AA00000F0A5FB08BD00B585B00121080300F0DA
:101AB0008DFD1820ADF80C004FF48270ADF80200D7
:101AC0000120ADF808000020ADF806000720ADF8B1
:101AD00010000020ADF80400ADF80000ADF80E00D5
:101AE0004FF40070ADF80A0069465A4800F0BAFF9A
:101AF0000121584801F053F805B000BD10B5FFF7BB
:101B000095FFFFF7D0FF10BD10B50446214652A047
:101B100003F08AF8002010BDF8B505460E460024F3
:101B20000020009010214A4800F063FB01242BE0C4
:101B30004FF4805706E03800A7F1010702D1FFF704
:101B4000E3FFF8BD0221434801F0ADF80028F2D0D0
:101B5000295D404801F054F84FF4805707E0380001
:101B6000A7F1010703D10120FFF7CEFFE9E701212B
:101B7000384801F098F80028F1D0364801F042F8D2
:101B8000C0B20DF80400641CB442D1DD0120FFF79F
:101B900069FE10212E4800F02AFB0120D1E72DE933
:101BA000FC4180460D46002400200190002736A00D
:101BB0000068009029464046FFF7AEFF0120FFF77E
:101BC00051FE1021224800F014FB01242CE04FF4B8
:101BD000805607E03000A6F1010603D1FFF794FF1D
:101BE000BDE8FC8102211B4801F05DF80028F1D01E
:101BF0001DF80410174801F003F84FF4805607E071
:101C00003000A6F1010603D10120FFF77DFFE7E7D1
:101C10000121104801F047F80028F1D00D4800F0EC
:101C2000F1FF01A90855641CAC42D0DD0120FFF78B
:101C300019FE1021064800F0DAFA012404E001A898
:101C4000005D00EB0727641CAC42F8DD3846C7E7AF
:101C500000080140003001403C3C2D454550524FAA
:101C60004D2D4552524F522D3E3E20535049B5C83E
:101C7000B4FDB3ACCAB1A3A16572726F72436F6455
:101C8000653D25640A0000000008000008B5012138
:101C90000C2000F09BFC4FF40070ADF80000102009
:101CA0008DF8030003208DF802006946944800F087
:101CB000F1F98020ADF8000010208DF8030003201A
:101CC0008DF8020069468E4800F0E4F94FF4807008
:101CD000ADF8000004208DF803006946884800F044
:101CE000D9F94020ADF8000010208DF80300032042
:101CF0008DF802006946824800F0CCF92020ADF84A
:101D0000000010208DF8030003208DF802006946C2
:101D10007B4800F0BFF90120ADF8000010208DF8DD
:101D2000030003208DF802006946754800F0B2F9FF
:101D30000820ADF8000010208DF8030003208DF876
:101D4000020069466F4800F0A5F901216C4800F0D7
:101D50004EFA08216B4800F04CFA2021684800F048
:101D600046FA4021664800F042FA4FF40071644898
:101D700000F03FFA08BD024622FA01F000F001002F
:101D800070472DE9F0410646002400250027A046B3
:101D900040215B4800F02DFA17242CE04FF400712D
:101DA000574800F024FA0120FFF7F9FD214630469C
:101DB000FFF7E1FF0746012F04D18021504800F0D2
:101DC00016FA03E080214E4800F013FA4FF48071B8
:101DD0004B4800F0F2F9804608FA04F00121A140D6
:101DE000084005430120FFF7DAFD4FF40071444835
:101DF00000F0FFF9641E002CD0DA4021404800F0CA
:101E0000F6F92846BDE8F08110B50020FFF7B9FFCC
:101E100010BD10B504462046FFF7B3FF0120FFF7C1
:101E2000BEFD2021364800F0E4F90120FFF7B7FDA0
:101E30002021334800F0DBF910BD10B500244FF429
:101E40000000FFF79EFF0120FFF7A9FDFFF7DCFF71
:101E50000446204610BD10B50446FFF71AFC20606A
:101E6000FFF77EFC606030202168FFF768FB3820B8
:101E70006168FFF772FB10BD10B504463020216881
:101E8000FFF75DFB38206168FFF767FB10BD70B599
:101E900004460125B4F57A7F04D142F24100FFF7F0
:101EA000B8FF2BE041F28830844204D142F2820034
:101EB000FFF7AFFF22E042F21070844204D142F2F9
:101EC0000410FFF7A6FF19E04CF25030844204D111
:101ED00042F20820FFF79DFF10E00B48844204D136
:101EE00042F21040FFF795FF08E00848844204D111
:101EF0004FF42150FFF78DFF00E00025284670BD0C
:101F0000000C014000080140A086010040420F0083
:101F10003EB505460C460121042000F064FB28482C
:101F200000F062FFADF80450ADF800400020ADF8BD
:101F300002006946224800F0C2FF0121204801F05A
:101F400045FB00211E4801F0AFFC01211C4801F0B7
:101F500017FD3EBD08B54FF4E06000F0D7FE1E202F
:101F60008DF8000000208DF8010003208DF802009C
:101F700001208DF80300684600F0CDFE08BD01B5D4
:101F800000210F4801F021FA00200D49243108807A
:101F900001210B4801F019FA0DE000BF01210848AA
:101FA00001F0E5FC0028F9D00121054801F0FCFC16
:101FB0000098401E009000980028EED108BD000057
:101FC0000008004010B50446C649601A8C422FD064
:101FD00009DCC548204480B1B0F5806F16D0B0F55B
:101FE000006F4AD11BE0B0F5806F2AD0B0F5006FCA
:101FF00030D0B0F5406F40D135E00121042000F031
:10200000FFFA0021042000F0FBFA37E0012108204C
:1020100000F0F6FA0021082000F0F2FA2EE001218B
:10202000102000F0EDFA0021102000F0E9FA25E080
:102030000121202000F0E4FA0021202000F0E0FA45
:102040001CE00121402000F0DBFA0021402000F0DC
:10205000D7FA13E00121802000F0D2FA002180207D
:1020600000F0CEFA0AE00121080200F0C9FA0021CE
:102070004FF4807000F0C4FA00E000BF00BF10BD54
:1020800010B50121084600F0BBFA0021012000F044
:10209000B7FA10BD2DE9F0410246002500260020C8
:1020A00000230024002791F803C00CF00F0591F8DD
:1020B00003C00CF0100CBCF1000F03D091F802C06B
:1020C0004CEA050591F800C0BCF1000F31D014684E
:1020D00000202BE04FF0010C0CFA00F3B1F800C027
:1020E0000CEA03069E4220D183004FF00F0C0CFA3D
:1020F00003F7BC4305FA03FC4CEA040491F803C05F
:10210000BCF1280F06D14FF0010C0CFA00FCC2F80C
:1021100014C00AE091F803C0BCF1480F05D14FF09C
:10212000010C0CFA00FCC2F810C0401C0828D1D3E6
:102130001460B1F800C0BCF1FF0F34DD546800201A
:102140002EE000F1080C4FF0010808FA0CF3B1F88A
:1021500000C00CEA03069E4221D183004FF00F0C11
:102160000CFA03F7BC4305FA03FC4CEA040491F8AB
:1021700003C0BCF1280F05D100F1080C08FA0CF8D7
:10218000C2F8148091F803C0BCF1480F07D100F1E8
:10219000080C4FF0010808FA0CF8C2F81080401C37
:1021A0000828CED35460BDE8F0814FF6FF7101805E
:1021B000022181700421C17070470246002093689B
:1021C0000B400BB1012000E00020704701468868F9
:1021D00080B2704702460020D3680B400BB101204B
:1021E00000E0002070470146C86880B27047016176
:1021F0007047416170470AB1016100E04161704779
:10220000C16070474FF480320A438261816182610C
:1022100082698269704702460020344B18684FF685
:102220008073184040EA02100843304B1860704732
:102230002F49C8617047F0B50A46002300240021E9
:1022400000252A4E7168C0F3034583B200F440169E
:10225000B6F5401F08D121F07061244E766826F053
:102260007066224F7E6012E000F48016B6F5801F83
:1022700006D1032606FA05F4A14341F0706106E099
:10228000460D360103FA06F6B14341F0706122B102
:10229000460D360103FA06F63143144E7160F0BD67
:1022A00030B500228B071C0F0F2303FA04F20F4BEB
:1022B00008338C1053F8243093430C4C08348D10A1
:1022C00044F8253023468C1053F824308C07240F13
:1022D00000FA04F42343054C08348D1044F82530EB
:1022E00030BD00000014014000F8FEBF00000140B6
:1022F00000002042DE48006840F00100DC49086030
:1023000008464068DB490840D949486008460068EB
:10231000D9490840D64908600846006820F4802062
:1023200008600846406820F4FE004860002088608D
:102330007047CF49096821F48031CD4A11601146B8
:10234000096821F480211160B0F5803F03D0B0F519
:10235000802F0ED106E0C649096841F48031C44A95
:10236000116007E0C249096841F4A021C04A116028
:1023700000E000BF00BF704710B5014600220023F7
:1023800000204A11012A02D1B94C236806E0022A32
:1023900002D1B74C236A01E0B54C636A01F01F0219
:1023A000012494401C400CB1012000E0002010BD2D
:1023B00038B5002000900024002500BF3120FFF731
:1023C000DBFF05460098401C00901DB90098B0F551
:1023D000A06FF3D13120FFF7CFFF08B1012400E057
:1023E0000024204638BD01460020A14A106820F094
:1023F000F80040EAC10010607047A04908607047CB
:10240000024600209A4B586820F47C1042EA0103EF
:102410001843974B586070479849086670470146C3
:102420000020934A506820F0030008435060704732
:102430008F48406800F00C007047014600208C4A2D
:10244000506820F0F00008435060704701460020BB
:10245000874A506820F4E0600843506070470146A6
:102460000020834A506820F4605040EAC100506068
:10247000704729B17E4A527A02437D4B5A7204E07A
:102480007B4A527A82437A4B5A7270477B49D831E1
:102490000860704701460020754A506820F44040AB
:1024A0000843506070470021714A20321170704A11
:1024B00082F82010012802D004280AD104E001216A
:1024C0006B4A2032117005E00521694A20321170F3
:1024D00000E000BF00BF7047694908607047644969
:1024E000096A0143624A11627047654944390860CC
:1024F000704730B500210022002400235C4D6D6838
:1025000005F00C0121B1042905D0082923D105E0EB
:102510005C4D056022E05C4D05601FE0544D6D6828
:1025200005F47012022505EB9242514D6D6805F4D9
:1025300080341CB9554D554305600BE04C4D6D681A
:1025400005F400351DB1524D5543056002E04E4D76
:102550005543056002E04B4D056000BF00BF444D90
:102560006D6805F0F00109094A4D6B5C0568DD40B6
:1025700045603F4D6D6805F4E061090A454D6B5CAF
:102580004568DD4085603A4D6D6805F46051C90AC3
:10259000404D6B5C4568DD40C560354D6D6805F4A8
:1025A0004041890B3C4D6B5CC568B5FBF3F505619B
:1025B00030BD29B12E4A526902432D4B5A6104E0C5
:1025C0002B4A526982432A4B5A61704729B1284AE3
:1025D00092690243264B9A6104E0254A926982433C
:1025E000234B9A61704729B1214AD2690243204B9B
:1025F000DA6104E01E4AD26982431D4BDA617047FA
:1026000029B11B4AD2680243194BDA6004E0184A28
:10261000D2688243164BDA60704729B1144A1269B6
:102620000243134B1A6104E0114A12698243104BB2
:102630001A61704712494039086070470F49C864F1
:1026400070470B49C87170470948406A40F0807074
:1026500007494862704701460020054A92680A40CF
:102660000AB1012000E000207047014988727047DC
:10267000001002400000FFF8FFFFF6FE000042429B
:102680008004424200127A00001BB70000093D009E
:10269000808D5B00020000201200002010B504466F
:1026A000D749601A8C422BD006DCD648204498B11A
:1026B000B0F5806F38D119E0B0F5806F2AD0B0F551
:1026C0006C4F31D101218803FFF79AFF00214FF4AD
:1026D0008040FFF795FF28E001214804FFF79DFFA8
:1026E00000214FF40030FFF798FF1EE0012188041D
:1026F000FFF793FF00214FF48020FFF78EFF14E0D7
:102700000121C804FFF789FF00214FF40020FFF7E3
:1027100084FF0AE001210805FFF77FFF00214FF445
:102720008010FFF77AFF00E000BF00BF10BD2DE969
:10273000F04786B005460E460024A24600BF00BF03
:1027400000272F462C8A4CF6FF700440F088044383
:102750002C82AC894EF6F3100440B08831890843CE
:10276000718908430443AC81AC8A4FF6FF400440B2
:10277000B0890443AC8201A8FFF7BBFEA2488742A0
:1027800002D1DDF810A001E0DDF80CA00AEBCA00D0
:1027900000EB0A1031688900B0FBF1F86420B8FB47
:1027A000F0F004012009642101FB1089322000EBC4
:1027B0000910B0FBF1F000F00F0004432C8106B0CB
:1027C000BDE8F0874FF41651016000218180C1807F
:1027D00001810C21418100218181704710B50246A1
:1027E0000020108A4FF2FF0318400B884C882343C7
:1027F0008C882343CC8823431843108210BD0021CA
:10280000018041808180C180704721B1828942F47A
:102810000052828104E082894DF6FF731A40828162
:102820007047F0B503460024002600250020184616
:10283000C1F3421401F01F06012707FA06F5012C27
:1028400001D10C3004E0022C01D1103000E0143032
:102850001AB107682F43076002E00768AF430760BB
:10286000F0BD1AB1838A0B43838202E0838A8B43D3
:1028700083827047028A4FF6F0731A400282028AFE
:102880000A430282704782894FF2FF731A408281A5
:1028900082890A438281704721B1828942F0020213
:1028A000828104E082894FF6FD731A40828170476D
:1028B000028A4FF6DF731A400282028A0A430282BA
:1028C000704721B1028A42F48042028204E0028A07
:1028D0004BF6FF731A4002827047C1F308028280F0
:1028E000704701468888C0F308007047818941F02D
:1028F000010181817047028BD2B20283028B42EACE
:10290000012202837047028B02F47F420283028B12
:102910000A430283704721B1828A42F020028282F8
:1029200004E0828A4FF6DF731A408282704721B139
:10293000828A42F01002828204E0828A4FF6EF73AC
:102940001A408282704721B1828A42F00802828254
:1029500004E0828A4FF6F7731A4082827047828AB7
:102960004FF6FB731A408282828A0A438282704742
:1029700021B1828A42F00202828204E0828A4FF60A
:10298000FD731A40828270470246002013880B4074
:102990000BB1012000E000207047CA43028070475D
:1029A00070B502460B460024002100250020C3F329
:1029B000421503F01F01012606FA01F1012D02D193
:1029C0009689314006E0022D02D1168A314001E09D
:1029D000968A31401C12012606FA04F41688344007
:1029E00011B10CB1012000E0002070BD10B5002233
:1029F00000230A1201249440A3B2DC43048010BDDA
:102A0000004C004000BCFFBF0038014010B5044638
:102A1000BD48204478B1B0F5806F16D0B0F5784F3E
:102A20001DD101210803FFF7EBFD00214FF4805079
:102A3000FFF7E6FD14E001218803FFF7EEFD00211A
:102A40004FF48040FFF7E9FD0AE00121C803FFF7DA
:102A5000E4FD00214FF40040FFF7DFFD00E000BF80
:102A600000BF10BD10B50022028802F441520B884D
:102A70004C8823438C882343CC8823430C892343ED
:102A80004C8923438C892343CC8923431A430280F6
:102A9000838B4FF2FF74234083830B8A038210BD24
:102AA0002DE9F04786B005460C464FF00009022795
:102AB0004FF000084FF0010A0026A88B4FF24001AA
:102AC0000840A88302202884B5F81C902089022899
:102AD00001D100BF31E0A08810B94FF0010A01E038
:102AE0004FF0020A01A8FFF704FDE088B0F5007F6F
:102AF0000AD1019800EB8000400021890902B0FB57
:102B0000F1F0401D86B20BE04FEA4A10218948439C
:102B1000019901EB81014900B1FBF0F0401D86B243
:102B20000A20B6FBF0F606F00108A6EB0800C0F399
:102B30004F074FF6FF7000EA0828022F01DBFF2F36
:102B400002DD02274FF0000847EA0800E188084349
:102B50002884208840F4006061880843A1880843E5
:102B60006189084340EA0909A5F81C9006B0BDE850
:102B7000F0870021018041808180C18001814181F5
:102B80008181C1810721018270470021018041803C
:102B90008180C1800221018100214181704721B1E2
:102BA000028842F04002028004E002884FF6BF73C0
:102BB0001A400280704721B1828B42F48062828386
:102BC00004E0828B4FF6FF331A408283704730B5A2
:102BD000002400230C110125A540ABB21AB1858851
:102BE0001D43858002E085889D43858030BD1AB1F4
:102BF00083880B43838002E083888B438380704704
:102C0000818170470146888970474FF6FF62914283
:102C100004D0028842F48072028004E002884FF6F9
:102C2000FF631A400280704721B1828842F004029B
:102C3000828004E082884FF6FB731A4082807047DE
:102C400002884FF2FF731A40028002880A43028012
:102C50007047018841F480510180704721B102889A
:102C600042F40052028004E002884DF6FF731A40DD
:102C70000280704702460020012901D0108B00E03D
:102C8000908A70470146088A7047B1F5804F04D199
:102C9000028842F48042028004E002884BF6FF730F
:102CA0001A40028070470246002013890B400BB186
:102CB000012000E000207047CA4302817047F0B550
:102CC0000246002000240023002501F00F07012602
:102CD000BE40B4B20B1101269E40B3B2968806EAFC
:102CE00003051689264016B10DB1012000E0002031
:102CF000F0BD10B5002201F00F040123A3409AB2E9
:102D0000D343038110BD000000C8FFBF3149014318
:102D1000314A1160704770B5002100230F22C4783A
:102D200004B32D4C246804F4E064C4F5E064210A83
:102D3000C1F10403CA40447804FA03F184781440D2
:102D400021430901254C0678A155047804F01F059C
:102D50000124AC4005786D11AD0005F1E025C5F802
:102D6000004109E0047804F01F050124AC401C4D2B
:102D70000678761145F8264070BD1A4A0A4002438B
:102D8000154B1B1F1A60704739B1134A121D126888
:102D90000243114B1B1D1A6006E00F4A121D1268F8
:102DA00082430D4B1B1D1A607047042808D14FF059
:102DB000E021096941F004014FF0E022116107E0D0
:102DC0004FF0E021096921F004014FF0E022116188
:102DD000704700000000FA050CED00E000E400E0A0
:102DE00080E100E080FFFF1F10B50446F749601A3C
:102DF0008C4245D00CDCB4F1804F1DD0F448204407
:102E000018B3B0F5806F29D0B0F5006F54D12EE023
:102E1000B0F5806F3DD0B0F58E3F03D0B0F5923F56
:102E20004AD13FE00121C802FFF7EAFB00214FF43D
:102E30000060FFF7E5FB40E001210846FFF7EDFBEE
:102E400000210120FFF7E9FB37E001210220FFF715
:102E5000E4FB00210220FFF7E0FB2EE0012104202B
:102E6000FFF7DBFB00210420FFF7D7FB25E0012162
:102E70000820FFF7D2FB00210820FFF7CEFB1CE063
:102E800001211020FFF7C9FB00211020FFF7C5FB2F
:102E900013E001212020FFF7C0FB00212020FFF7D5
:102EA000BCFB0AE001214803FFF7AAFB00214FF415
:102EB0000050FFF7A5FB00E000BF00BF10BD028877
:102EC00002F08F020280CA884B881A4303881A4393
:102ED00002808A8882850A880285BE4A904202D092
:102EE000BD4A904201D10A7A02860122828270474D
:102EF00070B5002400220023058C4FF6FE76354085
:102F00000584028C8388048B4FF68F752C400D88C6
:102F10002C43751E2A400D892A434D882A43CD88AB
:102F20008586AC4DA84202D0AB4DA84213D14FF6D6
:102F3000F7752A404D892A434FF6FB752A408D8844
:102F40002A4347F6FF652B4047F6FF552B408D89F6
:102F50002B43CD892B4383800483028470BD70B5DD
:102F6000002400220023058C4FF6EF7635400584BF
:102F7000028C8388048B48F6FF752C400D884FF631
:102F8000FF7606EA05252C434FF6DF752A400D89AA
:102F900006EA05152A434D8806EA05152A43CD8819
:102FA00005878C4DA84202D08B4DA8421DD14FF60B
:102FB0007F752A404D894FF6FF7606EA05152A43AC
:102FC0004FF6BF752A408D8806EA05152A4347F655
:102FD000FF352B4047F2FF752B408D8906EA8505AA
:102FE0002B43CD8906EA85052B4383800483028425
:102FF00070BD70B5002400220023058C4FF6FF66DB
:1030000035400584028C8388848B4FF68F752C4065
:103010000D882C434FF6FF552A400D894FF6FF7659
:1030200006EA05252A434D8806EA05252A43CD8868
:103030008587684DA84202D0674DA8421DD14FF246
:10304000FF752A404D894FF6FF7606EA05252A438B
:103050004FF6FF352A408D8806EA05252A4346F6B5
:10306000FF752B4045F6FF752B408D8906EA051547
:103070002B43CD8906EA05152B4383808483028484
:1030800070BD70B5002400220023058C4EF6FF763B
:1030900035400584028C8388848B48F6FF752C406C
:1030A0000D884FF6FF7606EA05252C434DF6FF7591
:1030B0002A400D8906EA05352A434D8806EA05357A
:1030C0002A43CD88A0F84050424DA84202D0424D3C
:1030D000A84207D1C3F30D038D894FF6FF7606EAA8
:1030E00085152B4383808483028470BD828B4FF2CD
:1030F000FF331A408283828B4FF6FF7303EA01236A
:103100001A4382837047F0B50C4615460021002211
:103110000026078C4EF6FF7C07EA0C070784818B9C
:10312000028C4FF6FF7707EA043640F6FF47394036
:103130004FF6FF7707EA05274FF6FF7C0CEA033CC2
:1031400047EA0C0739434DF6FF773A4046F480577B
:103150003A4381830284F0BD828B4FF6F3731A40A9
:103160008283828B0A4382837047F0B50C461546F2
:10317000002100220026078C4FF6FF6C07EA0C079F
:103180000784818B028C4FF6FF7707EA04264FF6FF
:103190000C7739404FF6FF7707EA03172F4339437F
:1031A0004FF6FF573A4046F480773A4381830284D2
:1031B000F0BD028B4FF2FF331A400283028B4FF6B1
:1031C000FF7303EA01231A43028370470010004093
:1031D00000FCFFBF002C014000340140F0B50C465C
:1031E0001546002100220026078C4FF6EF7C07EAE7
:1031F0000C070784018B028C4FF6FF7707EA041651
:1032000040F6FF4739404FF6FF7707EA0337394367
:103210004FF6FF7707EA052739434FF6DF773A4045
:1032200046F010073A4301830284F0BD028B4FF64B
:10323000F3731A400283028B0A4302837047F0B58E
:103240000C46154600210022068C4FF6FE773E40C4
:103250000684018B028C4FF60C7631407E1C06EA08
:1032600003162E4331437E1E324044F001063243A2
:1032700001830284F0BD70B505460C46208850B924
:103280002389A28861882846FFF7D9FFE18828466C
:10329000FFF7CCFF25E0208804280AD12389A288E3
:1032A00061882846FFF79AFFE1882846FFF781FFEB
:1032B00017E0208808280AD12389A2886188284637
:1032C000FFF753FFE1882846FFF746FF09E023890F
:1032D000A28861882846FFF716FFE1882846FFF795
:1032E00005FF70BD2DE9F04105460C46002601277B
:1032F000608808B9022600E00026A088012801D1D4
:10330000022700E001272088A0B92389A2886188CC
:103310002846FFF794FFE1882846FFF787FF2389B7
:103320003A4631462846FFF759FFE1882846FFF71D
:1033300040FF13E02389A28861882846FFF74EFFEB
:10334000E1882846FFF735FF23893A46314628466B
:10335000FFF775FFE1882846FFF768FFBDE8F081B9
:103360000A884B881A438B881A43CB881A430B89E7
:103370001A434B891A438B891A43A0F8442070479B
:103380004FF6FF71818000210180C1804180017270
:1033900070470021018041808180C180018141818D
:1033A0008181C1817047002101804180012181809C
:1033B0000021C1800181704700210180418081800E
:1033C000C180018141818181704721B1028842F031
:1033D0000102028004E0028840F2FE331A400280BB
:1033E000704731B1B0F8442042F40042A0F84420C4
:1033F00005E0B0F84420C2F30E02A0F84420704764
:103400001AB183890B43838102E083898B438381D3
:1034100070478182704741EA0203A0F84830704744
:103420001AB183890B43838102E083898B438381B3
:10343000704701894FF6F8721140018170470A46C2
:10344000002101894FF68F731940114301817047A4
:1034500030B504460D4629462046FFF7F0FF208987
:1034600040F00700208130BD2DE9F04104460D46B3
:1034700016461F46602D06D13B46012231462046A6
:10348000FFF7ACFE05E03B46012231462046FFF740
:10349000D6FE29462046FFF7D2FF208940F00700DC
:1034A0002081BDE8F08170B50C4600210189C9B2C8
:1034B00044EA02054FF6FF7606EA03263543294320
:1034C000018170BD2DE9F04105460E46174698462C
:1034D000002443463A4631462846FFF7E4FF2C894C
:1034E0004FF6F870044044F007044FF68F70044024
:1034F00044F070042C81BDE8F081F0B504460D461F
:1035000016461F463B46324629462046FFF7CBFF6C
:10351000208940F480402081F0BD0185828270477F
:103520000A460021018840F28F331940114301807F
:103530007047F0B50C4615461E46002100220023B8
:103540000189028B038C4FF6F877394021434FF6FF
:10355000FC473A4040F201173A434FF6DD773B40D3
:103560004FF6FF7707EA06172F433B43018102839B
:103570000384F0BD0A460021018B4FF68F7319407A
:103580001143018370470A460021018B48F6FF73FF
:1035900019404FF6FF7303EA022319430183704772
:1035A0000A460021818B4FF68F73194011438183A6
:1035B00070470A460021818B48F6FF7319404FF689
:1035C000FF7303EA022319438183704721B1028804
:1035D00042F08002028004E0028840F27F331A4009
:1035E0000280704721B1828842F00402828004E0A8
:1035F00082884FF6FB731A408280704721B182881F
:1036000042F00802828004E082884FF6F7731A4085
:103610008280704721B1828842F00102828004E0FA
:1036200082884FF6FE731A40828070470A46002156
:10363000018B4FF6F77319401143018370470A4617
:103640000021018B4FF2FF7319404FF6FF7303EA1D
:1036500002231943018370470A460021818B4FF6EC
:10366000F77319401143818370470A460021818B0B
:103670004FF2FF7319404FF6FF7303EA0223194319
:10368000818370470A460021018B4FF6FB73194076
:103690001143018370470A460021018B4FF6FF3327
:1036A00019404FF6FF7303EA022319430183704761
:1036B0000A460021818B4FF6FB7319401143818329
:1036C00070470A460021818B4FF6FF3319404FF6B1
:1036D000FF7303EA02231943818370470A460021DE
:1036E000018B4FF67F7319401143018370470A46DF
:1036F0000021018BC1F30E014FF6FF7303EA022391
:103700001943018370470A460021818B4FF67F736E
:1037100019401143818370470A460021818BC1F310
:103720000E014FF6FF7303EA0223194381837047AA
:103730000A460021018C4FF6FD73194011430184A4
:1037400070470A460021018C4FF6F7731940114368
:10375000018470470A460021018C4FF6DF7319403F
:103760004FF6FF7303EA02131943018470470A46B8
:103770000021018C4FF67F7319404FF6FF7303EA67
:1037800002131943018470470A460021018C4FF649
:10379000FF5319404FF6FF7303EA022319430184D4
:1037A00070470A460021018C4FF2FF7319404FF613
:1037B000FF7303EA02231943018470470A4600217C
:1037C000018C4DF6FF7319404FF6FF7303EA023385
:1037D00019430184704710B5038C01248C40A34326
:1037E0000384038C02FA01F4A4B22343038410BDC2
:1037F00010B5038C04248C40A3430384038C02FA89
:1038000001F4A4B22343038410BD30B5038C01241A
:103810008C40A343038409B1082918D100F118038F
:1038200003EB61031B684FF68F74234000F118040B
:1038300004EB6104236000F1180303EB61031B68D0
:10384000134300F1180404EB610423601FE00B1F15
:10385000C3F34E0400F118031B5948F6FF742340CC
:103860000C1FC4F34E0500F1180463510B1FC3F382
:103870004E0400F118031B594FF6FF7404EA0224AA
:1038800023430C1FC4F34E0500F11804635130BDEF
:1038900021B1028842F00202028004E0028840F274
:1038A000FD331A400280704721B1028842F00402C1
:1038B000028004E0028840F2FB331A400280704725
:1038C00021B1828842F08002828004E082884FF633
:1038D0007F731A4082807047028840F2F7331A40A3
:1038E000028002880A430280704782884FF68F73F5
:1038F0001A40828082880A438280704702894FF68C
:10390000F8731A40028102890A43028170470289D2
:103910004FF67F731A40028102890A430281704781
:103920008184704781857047818670470187704721
:1039300081877047A0F8401070470288D2B2028099
:1039400002880A43028070470146888E704701460C
:10395000088F70470146888F70470146B1F84000D4
:1039600070470146888C70470146088D70470246B3
:103970000020138A0B400BB1012000E000207047AB
:10398000CA430282704730B502460020002300245B
:10399000158A05EA0103958905EA010413B10CB102
:1039A000012000E0002030BDCA43028270470000C1
:1039B0000CB50020019000904748006840F480302A
:1039C0004549086000BF4448006800F4003000909A
:1039D0000198401C0190009818B90198B0F5A06FAB
:1039E000F1D13D48006800F4003010B10120009092
:1039F00001E0002000900098012844D13748006879
:103A000040F01000354908600846006820F00300C7
:103A100008600846006840F0020008602E484068D0
:103A20002D4948600846406848600846406840F4B0
:103A3000806048600846406820F47C104860084672
:103A4000406840F4881048600846006840F0807084
:103A5000086000BF2048006800F000700028F9D01E
:103A60001D48406820F003001B4948600846406834
:103A700040F00200486000BF1748406800F00C00AA
:103A80000828F9D101E000BFFEE70CBD10B5FFF733
:103A90008FFF10BD10B51048006840F001000E49BE
:103AA0000860084640680E4908400B4948600846CF
:103AB00000680C490840084908600846006820F47E
:103AC000802008600846406820F4FE00486000201E
:103AD0008860FFF7DBFF10BD0010024000200240AD
:103AE0000000FFF8FFFFF6FED2B201E000F8012B64
:103AF000491EFBD270470022F6E710B513460A466E
:103B000004461946FFF7F0FF204610BD0FB400B57C
:103B10008DB010A909900B9000914FF0FF300A90E2
:103B200000200C9005480690054807906A4609A8B1
:103B30000F9900F0B9FD0DB05DF814FBC546000803
:103B4000E34600082DE9FF5F1D464FF0FF3BD5E936
:103B5000014691465F464FF00008A9697F1C019815
:103B60008847296A824688470028F6D1BAF1FF3F84
:103B70000CD024F4C064002E19DD600614D5BAF10F
:103B80002B0F09D0BAF12D0F0ED103E0584604B027
:103B9000BDE8F09F44F48064A9697F1C01988847C0
:103BA000761E8246002E02DDBAF1300F03D0B9F145
:103BB000000F26D032E0A969761E44F400747F1C01
:103BC000019888478246002E05DDBAF1780F06D0AD
:103BD000BAF1580F03D0B9F1000F10D01EE0B9F1BF
:103BE000000F02D0B9F1100F18D1A969761E24F484
:103BF00000747F1C019888478246102002E008204C
:103C000000E00A20814609E008FB0908A969761E40
:103C100044F400747F1C019888478246002E05DD1D
:103C20004946504600F02CFD0028EDDAE96901987C
:103C30008847A00502D46FF00100A8E7E00725D16E
:103C4000600613D5600502D5C8F1000000E04046CB
:103C500029680A1D2A600968220501D5087015E047
:103C6000220701D5088011E008600FE02868011DD7
:103C700029600068210502D580F8008006E0210750
:103C800002D5A0F8008001E0C0F8008038467EE749
:103C90002DE9FF4F087881B09946FF2805D0491CCF
:103CA0002D2804D00024002308E000230BE0012489
:103CB000F9E703EB830300EB4303491C0878FF2873
:103CC000F7D104B15B4200200090147801462D2CFE
:103CD00001D02B2C04D1521C2D2C12D00024009486
:103CE00000251678FF2E0ED00A24A0FB04C801FB85
:103CF0000481002700FB0711521C16EB0C006941E0
:103D0000EFE70124EBE7994450EA01020ED00024CA
:103D1000AA4D2646DFF8A88200F088FD82468B4631
:103D2000B9F1000009DAC9F100071BE00198002190
:103D3000C0E9001105B0BDE8F08F074612E0F807B2
:103D400007D022462B463046414600F0ACFA0646E4
:103D5000884622462B461046194600F0A4FA04462F
:103D60000D467F10002FEAD1B9F1000F32464346CD
:103D70005046594602DA00F008FB01E000F093FAE1
:103D8000009A0AB181F00041019AC2E90001D1E72D
:103D90002DE9FF4F1F468DB0D7E901464FF0FF38A0
:103DA0002E2045464FF000090B90B9696D1C0E9806
:103DB0008847396A824688470028F6D1BAF1FF3F22
:103DC0000AD024F4D064002E11DDBAF12B0F08D0F4
:103DD000BAF12D0F0BD102E0404611B0ABE744F42D
:103DE0008064B9696D1C0E9888478246761E6946C4
:103DF000600501D52D2000E02B208DF8000001F199
:103E0000010B0DF1200809E0B9696D1C0E98884777
:103E100082460F9844F40074761E0560002E02DD81
:103E2000BAF1300FF0D00B998A453ED144F08004AE
:103E300006E00F99681CA9F1010944F400740860B8
:103E4000B9696D1C761E0E98884782463028F0D0DE
:103E50002BE00B998A4505D1200603D444F0800459
:103E6000761E18E0504600F0B1FF08B30DF11301C3
:103E7000761E44F400748B4508D2AAF130000BF88A
:103E8000010B200607D5A9F1010003E0200602D4AA
:103E900009F101008146A00502D50F99681C086050
:103EA000B9696D1C0E9888478246002ED1DC53E01C
:103EB000002E51DDBAF1650F02D0BAF1450F4BD19A
:103EC000A00549D5B9696D1C24F44074761E0E987E
:103ED00088478246002E0CDD2B2804D0BAF12D0F26
:103EE00007D144F48074B9696D1C0E9888478246E6
:103EF000761EE00501D52D2100E02B2108F8011BDD
:103F0000CDF82C8021E00DF12901761E44F40074D7
:103F100088450CD2AAF1300010F0FF0088F80000AC
:103F200002D10B99884509D908F1010806E0E0059E
:103F300001D5244801E042F20F708146B9696D1C39
:103F40000E98884782460F980560002E04DD504683
:103F500000F03CFF0028D6D1F9690E988847FF2071
:103F60008BF8000088F800000020069007904B4670
:103F70006A4608A906A8FFF78BFEA00502D46FF0D9
:103F800001002AE714F0240F0AD0E00714D1DDE97C
:103F900006123868031D3B600068C0E900120BE0A0
:103FA000DDE9060100F0C4FA0146E00704D13868F3
:103FB000021D3A600068016028460EE700002440B8
:103FC0000000F03FF1D8FFFFF0B480EA0102D40F07
:103FD0004200B2EB410F02D20246084611464A00A7
:103FE00042D0C30DDDB2C1F3C752AD1A202D35DA70
:103FF000C1F3160141F4000204B15242C5F120069A
:1040000002FA06F12A411044B3EBD05F23D0C4B1C9
:10401000012DA0EBC35009DCF0BC4FF0004202EAD6
:10402000C352DBB200F5000000F075BB400000F1A8
:10403000807000EBC350A0F1807040EAD17049005D
:1040400009E0490841EAC071A0EBC35000F5000047
:10405000400800EBC350F0BC00F054BB61420122A9
:1040600002EB4101001BF6E7F0BC704781F0004114
:10407000AAE780F00040A7E780EA010210B502F04D
:104080000043400022D04A001FD0010E01EB126114
:10409000C0F35600C2F3560240F4000042F400029E
:1040A000A0FB022000047F39140400D0401C50EA19
:1040B000124001D44000491EC2B20C0604EBD010DD
:1040C000401C4008802A02D003E0002010BD20F0F0
:1040D0000100002900DA0020184310BD30B480EA46
:1040E000010202F0004530F0004221F0004013D000
:1040F00090B1C30DD40DC2F31601C0F31600E41A3B
:1041000041F4000140F400027D34914201D3641C6B
:1041100000E04900002C02DA30BC002070474FF468
:1041200000000023914201D3891A034340084FEA5B
:104130004101F7D151B1914202D14FF0004105E068
:1041400002D24FF0010101E06FF0010103EBC45016
:10415000284430BC00F0D6BA2DE9FE4F804681EAF3
:104160000300C00F0C46009021F0004123F00045F1
:10417000B8EB0200A94105D24046214690461C46B4
:104180000B46024623F00040104347D0270DC7F3EB
:104190000A00C3F30A510290401A019040286BDADA
:1041A000C3F3130040F4801B0098924620B1002313
:1041B000D2EB030A63EB0B0B01985946C0F14002A6
:1041C000504600F02CFA06460D4650465946019AD4
:1041D00000F044FA10EB08006141002487EA115214
:1041E00084EAE7731A4340D0009A62B3019A012A25
:1041F0004FEA075215DC001B61EB02014FF0004251
:1042000002EA0752CDE90042001C41F58011324616
:104210002B4600F0BDFA03B0BDE8F08F40462146C2
:10422000F9E7001B61EB0201001C41F58013001847
:104230005B412018A2F5001747EB030140EAD57057
:10424000B6196D4111E06D084FEA360645EAC075B2
:104250004FEA0752001B61EB0201001C41F580117F
:1042600049084FEA30000019514132462B4603B04D
:10427000BDE8F04F00F07DBA009801224000002315
:10428000D0EB020263EBE073009821464FEAE07442
:10429000B8EB000061EB0401E9E783F000435BE762
:1042A00081F0004158E72DE9FE4F81EA030404F054
:1042B000004421F0004100944FF0000B23F0004334
:1042C00050EA01045ED052EA03045BD0C3F30A54FF
:1042D000C1F30A552C44A4F2F3340194A0FB025418
:1042E000C1F3130141F48011C3F3130343F48013AA
:1042F00001FB024400FB034E840A970A44EA8154FE
:1043000047EA8357A4FB076802958D0A05FB0785DA
:104310004FEA932C04FB0C542705029D4FEA0658E4
:1043200047EA1637B5EB08056EEB070C870E920EC1
:1043300047EA811742EA8312A7FB0201B6EB0B01A1
:1043400064EB00042B0D43EA0C335E1844EB1C5065
:10435000DA465146E7FB0201C5F313044FEA0B337B
:1043600043EA14534FEA0432019C43EA0603A4F1E2
:104370000C040294009CCDE900B400F009FA03B0EB
:10438000BDE8F08F00200146F9E72DE9F04D81EA04
:10439000030404F0004B21F0004514464FF0000ADE
:1043A00023F0004150EA050220D054EA01021DD05A
:1043B000C5F30A570246C5F31303C1F31300C1F353
:1043C0000A5640F4801543F48013A7EB0608101B2F
:1043D000D64608F2FD3873EB050002D308F1010858
:1043E00001E092185B41B8F1000F03DA00200146AA
:1043F000BDE8F08D00204FF48011064684460EE0A3
:10440000171B73EB050705D3121B63EB050306436C
:104410004CEA010C49084FEA300092185B4150EA1F
:104420000107EDD152EA030012D082EA040083EAC8
:104430000501084305D0101BAB4106D20122002321
:1044400006E000224FF0004302E06FF0010253103B
:104450001AEB06004CEB085110EB0A0041EB0B0184
:10446000BDE8F04D00F085B90EB5C10F80EAE070EF
:104470000844CA07002140F233438DE80E000A4683
:104480000B4600F085F903B000BD0EB540F2334194
:1044900002910021CDE900110A460B4600F078F99F
:1044A00003B000BD20F00040C10DC0F3160040F481
:1044B00000007F2901DA00207047962903DCC1F152
:1044C0009601C840704796398840704770B5C1F36F
:1044D0000A5201F000450024C1F3130140F2FF33FA
:1044E00041F480119A4201DA002070BD40F233435A
:1044F0009A42A2F2334203DC524200F09FF800E0FD
:1045000090402C43F1D0404270BD00F0004230F0AA
:1045100000400AD0C10D01F56071C0F3160042EAF7
:104520000151C208400711437047002001467047FF
:1045300001F0004330B421F0004150EA010206D0FE
:104540000A0DA2F56072C1F31301002A02DC30BC2F
:1045500000207047440F44EAC104C100E01830BC99
:1045600000EBC25000F0CEB8002801DBC0F10040E3
:10457000002901DBC1F1004181427047002801DBC5
:10458000C0F10040002901DBC1F1004188427047C1
:1045900030B50B46014600202022012409E021FA13
:1045A00002F59D4205D303FA02F5491B04FA02F510
:1045B0002844151EA2F10102F1DC30BD2DE9F05FA7
:1045C0000546002092469B46884606468146402482
:1045D0001BE0284641464746224600F02FF8534646
:1045E0005A46C01A914110D311461846224600F08F
:1045F00016F82D1A67EB01084F46224601200021CC
:1046000000F00DF817EB00094E41201EA4F1010443
:10461000DFDC484631462A464346BDE8F09F202A63
:1046200004DB203A00FA02F1002070479140C2F109
:10463000200320FA03F3194390407047202A04DB3B
:10464000203A21FA02F00021704721FA02F3D0400B
:10465000C2F120029140084319467047202A06DB28
:10466000CB17203A41FA02F043EAE07306E041FA40
:1046700002F3D040C2F1200291400843194670472E
:104680003A2800D2303820F02002412A01D3A2F18A
:104690003700884201D34FF0FF3070470268114461
:1046A0001378016018467047D1600449516104498C
:1046B000116200211161114600F00CB99D460008FD
:1046C000C9480008426842B1016811F8013B23B1B2
:1046D000521EC0E90012184670470121C160881EB1
:1046E000704742685AB1C368016843B983688B4216
:1046F00005D0491E521CC0E90012002070474FF03F
:10470000FF3070470029A8BF7047401C490008BF10
:1047100020F00100704710B4B0FA80FC00FA0CF0F1
:1047200050EA010404BF10BC704749B1CCF1200429
:1047300021FA04F411FA0CF118BF012121430843B6
:10474000A3EB0C01CB1D4FEA00614FEA102042BFE2
:10475000002010BC704700EBC35010440029A4BFD8
:1047600010BC7047401C490008BF20F0010010BC7D
:10477000704710B5141E73F1000408DA401C41F1B3
:10478000000192185B411A4301D120F0010010BDD5
:104790002DE9F04D92469B4611B1B1FA81F202E04B
:1047A000B0FA80F220329046FFF739FF04460F46F8
:1047B00040EA0A0041EA0B0153465A46084313D027
:1047C000114653EA010019D0C8F140025046FFF7E4
:1047D00035FF05460E46504659464246FFF71FFF35
:1047E000084305D0012004E020463946BDE8F08D9D
:1047F0000020054346EAE0762C4337430A986305D8
:10480000E40AA0EB08000022FD0A44EA47540A30FB
:1048100002D500200146E9E7010510196941DDE9EB
:10482000084500196941BDE8F04DA2E70EB540F218
:10483000334202920022CDE900221346FFF7A8FF7F
:1048400003B000BDC1F30A52C1F3130140F2FF33BC
:1048500041F480119A4202DA00200146704740F28A
:1048600033439A42A2F2334202DC5242FFF7E6BEE1
:10487000FFF7D5BE30B5041E71F1000404DB4FF024
:104880000044404264EB0101141E73F1000405DB97
:104890001C464FF00043524263EB0403994208BFA9
:1048A000904230BD064C074D06E0E06840F0010341
:1048B00094E8070098471034AC42F6D3FBF73CFC71
:1048C0004456000864560008C0B24FF4F05100F09E
:1048D00097B900002DE9F34F8BB04FF0000801F1BC
:1048E0000C000C464FF0010B46460DF1080A0190F2
:1048F000626901210198904705002DD0252D2CD00B
:10490000216A8847C0B16269012101989047216AF4
:1049100088470028F7D1411E62690198904700E05E
:10492000761CA1690B988847216A88470028F7D12F
:10493000E1690B988847DBE7A1690B988847074630
:10494000A84201D1761CD3E7E1690B9888477F1C08
:1049500002D1B8F1000F6FD046E1002762693D46F1
:104960003946019890472A2804D1626901210198AB
:1049700090470125DFF884926269012101989047F0
:10498000A0F130010A290AD24F45E5DC07EB870187
:1049900000EB4107303FDFD445F01005ECE7E906B6
:1049A00001D46FF000476C280AD04C2814D0682836
:1049B00015D06A280DD074281CD07A281AD01DE092
:1049C00062690121019890476C2802D045F00405E6
:1049D00014E045F002050DE045F020050AE06269AB
:1049E000012101989047682802D045F0080505E0AC
:1049F00045F400656269012101989047C4E90157B7
:104A000065283DD019DC58287AD00CDC452837D0F1
:104A100004DC252826D0412831D131E046282FD08A
:104A200047282CD12CE05B2877D0612828D0632838
:104A30007CD0642823D15AE0D0E06F2848D008DC2D
:104A400066281DD067281BD0692821D06E2816D172
:104A500027E0702845D0732868D0752847D078287B
:104A60000DD14DE0A1690B988847054625283FF4F4
:104A700069AFE1690B9888476D1C3FF46AAFB3E0FA
:104A800023466A466FF001000B99FFF781F99EE01B
:104A900045F040006060A80723464FF0000236D47E
:104AA0003EE0E8077FF447AF2068011D2160006801
:104AB000290501D506701BE7290701D5068017E7F0
:104AC000A90703D5F117C0E9006111E706600FE7F8
:104AD00045F040006060A80723464FF0080216D456
:104AE0001EE040F60E0125EA0100606016E045F088
:104AF00040006060A80723464FF00A0207D40FE089
:104B000045F040006060A80708D5234610226FF0EA
:104B100001000B99AFF3008059E007E02346102213
:104B20006FF001000B99FFF70DF850E04FF000090E
:104B30004F464B46632802D05B2806D040E0E8068B
:104B400001D40120A06001273AE0626901210198A7
:104B500090475E2805D14FF00109626949460198E6
:104B60009047216939B900210A46534643F821206C
:104B7000491C0829FADBB0B3216969B9C11700EBF8
:104B8000D16253110AEB830122F01F02821A012025
:104B90000B68904003430B606269012101989047C4
:104BA0005D28E8D1B9F1000F09D00020514651F835
:104BB0002020D24341F82020401C0828F7DB02AB1C
:104BC000224600976FF001000B99AFF30080002898
:104BD0000CDA401C08D1BBF1000F05D04FF0FF30BC
:104BE0000DB0BDE8F08FFFE74046F9E7E90701D1D6
:104BF00008F1010806444FF0000B79E6CCCCCC0C50
:104C00007F2801D9002208E0064A02EB5002C007C3
:104C1000127800D1120902F00F02012090400840E2
:104C200070470000145500080FB4054B10B503A9D8
:104C3000044A029800F0D2F810BC5DF814FB0000A2
:104C4000CF1000081800002002E008C8121F08C199
:104C5000002AFAD170477047002001E001C1121FFD
:104C6000002AFBD1704700002DE9FF5FDDE902203B
:104C7000010DDDF838B0024318D044F61050A1F20F
:104C8000FF3141430D140F98012820D0A5EB0B00F4
:104C9000401C5FEA000A4FF00004474EDFF81C9109
:104CA000A046504616D5CAF1000728E00F98012407
:104CB00043A2012808D0002100980F9BC0E90021E1
:104CC000C0E90243BDE8FF9F6FEA0B01F4E7CBF1B7
:104CD0000000DEE7074612E0F80707D02246334619
:104CE00040464946FFF7DFFA80468946224633466A
:104CF00010461946FFF7D7FA04460E467F10002FDC
:104D0000EAD1DDE90201BAF1000F42464B4602DA70
:104D1000FFF7C9FA01E0FFF738FB04460E46002210
:104D2000284BFFF7A7FD03D84FF0FF30014607E0FF
:104D30000022254B20463146FFF70EFAFFF782FD91
:104D4000102409E0002C0ADB0A220023FFF736FCBE
:104D5000019B30321A55641E50EA0102F2D1641CE4
:104D6000019AC4F1110314440F9A012A03D00122BD
:104D700008430DD10AE0084304D000204FF0110B86
:104D80000F9080E7A3EB0B056D1E0DE05B4504DD86
:104D90004FF0000205F1010504E003DA4FF00002D4
:104DA000A5F10105002AECD000980F99C0E9023165
:104DB000C0E9004586E70000000024400000F03F05
:104DC000300000000000F0430000E03F30380A28C7
:104DD00001D2012070470020704700002DE9FF4FED
:104DE00095B09B468946064600250FE2252877D1D7
:104DF00000242746F84A0121059400E0044316F8F0
:104E0000013F203B01FA03F01042F7D130782A2805
:104E100011D06FF02F033078A0F13002092A16D894
:104E2000059A44F0020402EB820203EB42021044B2
:104E3000761C0590EFE759F8042B0592002A03DA57
:104E4000504244F40054059044F00204761C30783B
:104E50002E2816D116F8010F44F004042A280DD08C
:104E60006FF02F023078A0F13003092B09D807EB3F
:104E7000870302EB4303C718761CF3E759F8047B5A
:104E8000761C30786C280FD006DC4C2817D06828A8
:104E90000DD06A2814D104E0742810D07A280FD1DC
:104EA0000DE044F400140AE044F4801401E044F4FA
:104EB00040147278824202D104F58014761C761C6C
:104EC000307866280BD013DC582877D009DC00280E
:104ED00075D04528F6D04628F4D047281AD19DE150
:104EE00018E0632835D0642879D0652812D195E17F
:104EF000702873D008DC6728F1D069286FD06E283D
:104F00000DD06F2806D1B5E073282CD0752875D048
:104F1000782874D05A46179990476D1C75E1C4F3F0
:104F20000250022809D003280DD0D9F80010042817
:104F30000DD00D6009F1040967E1D9F80010EA17F6
:104F4000C1E90052F6E7D9F800100D80F2E70D70C4
:104F5000F0E719F8041B8DF8001000208DF801000F
:104F6000EA46012003E059F804AB4FF0FF30610737
:104F70004FF0000102D40DE008F101018846B9426A
:104F80000FDA8045F8DB1AF808100029F4D108E0A0
:104F900008F1010188468142FADB1AF8081000295D
:104FA000F6D105985B46A0EB080721463846179ACC
:104FB00000F094FA284400EB080507E04DE029E1F1
:104FC0000DE01AF8010B5A4617999047B8F10108FD
:104FD000F7D25B4621463846179A13E142E00A228F
:104FE0000092C4F302524FF0000A022A08D059F886
:104FF00004CB032A4FEAEC710AD00DE029E02AE045
:1050000009F1070121F00702F2E802C1914609E027
:105010000FFA8CFC4FEAEC71042A03D14FFA8CFC96
:105020004FEAEC71002907DA0A460021DCF1000C96
:1050300061EB02012D2202E0220504D52B228DF81E
:105040000420012203E0E20701D02022F7E7904686
:1050500059E00A2102E010220DE010214FF0000A71
:1050600000910BE010224FF0000A44F004040827DE
:10507000009203E008224FF0000A0092C4F30252AB
:10508000022A05D059F804CB0021032A08D009E0F0
:1050900009F1070121F00702F2E802C1914605E09B
:1050A0001FFA8CFC042A01D10CF0FF0C4FF0000811
:1050B000220728D5702806D0009B83F0100353EAFE
:1050C0000A0305D00EE040228DF80420012208E0FA
:1050D0005CEA010206D030228DF804208DF805002C
:1050E00002229046009B83F0080353EA0A030AD188
:1050F0005CEA010201D1620705D530228DF8042057
:105100004FF001087F1E582804D034A003900EA849
:1051100002900DE036A0F9E753466046009AFFF78B
:105120004DFA84460398825C0298401E02900270F9
:105130005CEA0100F0D1029806A9081A00F1200AE1
:10514000600702D524F4803400E00127574502DDD2
:10515000A7EB0A0000E0002000EB0A010090059890
:105160004144401A0590E00306D45B462146179A55
:10517000059800F0B3F90544002706E001A85A4657
:10518000C05D179990476D1C7F1C4745F6DBE00317
:105190000CD55B462146179A059800F09FF9054407
:1051A00004E030205A46179990476D1C0099481E1C
:1051B00000900029F5DC08E0029802995A46007830
:1051C000491C0291179990476D1CBAF10001AAF190
:1051D000010AF1DC65E100000928010030313233B9
:1051E0003435363738396162636465660000000023
:1051F000303132333435363738394142434445460D
:105200000000000000F058F90544761C30780028B2
:105210007FF4ECAD19B02846BDE8F08F620700D4EA
:10522000062709F1070222F0070CFCE80223E146F9
:1052300003F000485FEA080C02D00FF2702C0DE07A
:105240005FEA045C02D50FF2682C07E05FEAC47CD9
:1052500002D00FF2602C01E0AFF2700C4FF0FF387B
:1052600023F00043CDF850C065280CD006DC45285B
:1052700009D046281DD047283DD13DE0662818D0EA
:1052800067287ED138E00021112F01DB112000E0DA
:10529000781CCDE9000106A90EA8FFF7E5FCDDE9C1
:1052A0000F010E9A03910021009207F1010A049167
:1052B0004DE04FF000400097CDE9011006A90EA87F
:1052C000FFF7D2FCDDE90F0203920E9B1199002239
:1052D000DDF80CA00093049211B9791C00EB010ACF
:1052E000B7EB0A0004D4C0F1FF3007F1010A0490C3
:1052F000AAEB0700019044E0012F00DA012700210A
:10530000112F01DD112000E03846CDE9000106A98A
:105310000EA8FFF7A9FCDDE90F010E9A0391002109
:1053200004910092BA4621070CD40399514500DA42
:105330008A46BAF1010F05DD009AAAF10101515C1C
:10534000302908D0B84202DA10F1040F06DA012140
:10535000CDE9011015E0AAF10101E9E7002805DC1B
:10536000049901440491AAEB000102E0411C51455B
:1053700000DD8A460499401A401C01904FF000401D
:105380000290200704D40198504501DBCDF8048039
:1053900000208DF84F0002980DF14F07B0F1004F3B
:1053A00025D02B200E9002984FF0020800280CDA2E
:1053B000404202902D200E9007E00A210298FFF74C
:1053C000E7F83031029007F8011DB8F10001A8F1AB
:1053D0000108F2DC02980028EFD1791E0E980870BF
:1053E000307800F0200040F0450007F8020D12A8C8
:1053F000C01B00F107081498007800B1012000EBF1
:105400000A01019801EBE07105984144401A401EE1
:105410000590E00306D45B462146179A059800F0F4
:105420005DF805441498007818B15A4617999047CA
:105430006D1CE00324D55B462146179A059800F0C1
:105440004DF805441CE00498002807DBDDE9030162
:10545000884203DD0098405C179901E017993020DD
:105460005A469047049805F10105401C04900198A4
:10547000401E019004D12E205A46179990476D1C6A
:10548000BAF10001AAF1010ADDDC05E017F8010B11
:105490005A46179990476D1CB8F10001A8F1010810
:1054A000F4DC5B462146179A0598ABE62D00000018
:1054B0002B000000200000002DE9F04104460025EB
:1054C0001E461746880404D405E039462020B0471C
:1054D0006D1C641EF9D52846BDE8F0812DE9F04128
:1054E000044600251E469046C80301D5302700E03B
:1054F0002027880404D505E041463846B0476D1C96
:10550000641EF9D52846BDE8F08100000000800047
:1055100070575500DDDDDDDDDCBBBBDDDDDDDDDD58
:10552000DDDDDDDD988888888888888877777777DB
:1055300077888888855555566666666666666666A7
:105540006668888883333332222222222222222252
:105550002228888D596F7520686176652074757270
:105560006E6564206F6E206379636C696320766F6B
:105570006C74616D6D65747279206D65617375729F
:10558000656D656E74732C20746865206D6561733C
:105590007572656D656E74207374617274732072B8
:1055A0006967687420617761792C20706C6561731C
:1055B0006520776169742E0D0A0000005365742020
:1055C0007570207375636365737366756C6C792190
:1055D00020546865206C6F77657220766F6C7461FB
:1055E0006765206C696D697420796F7520656E74CC
:1055F00065722069733A252E3366560D0A00000045
:10560000C4FACAE4C8EBB5C4C9A8C3E8CBD9C2CAB6
:10561000D3D0CEF3A3ACC7EBD4DA312F352F313052
:105620002F32302F35302F3130302F3230302F3570
:1056300030302F31303030B5C8D6D0D1A1D4F10DB3
:105640000A00000064560008000000201C00000052
:10565000484C0008805600081C000020040600008A
:10566000584C000800000000000001020304010281
:1056700003040607080902040608000000000000F1
:0400000508000147A7
:00000001FF
