:020000042000DA
:10100000FCBF0020A1140020000000000000000030
:1010100000000000000000000000000000000000D0
:1010200000000000000000000000000000000000C0
:1010300000000000000000000000000000000000B0
:1010400000000000000000000000000000000000A0
:101050000000000000000000000000000000000090
:101060000000000000000000000000000000000080
:101070000000000000000000000000000000000070
:101080000000000000000000000000000000000060
:101090000000000000000000000000000000000050
:1010A0000000000000000000000000000000000040
:1010B0000000000000000000000000000000000030
:1010C0002DE9F3470C468E4B8E48984723688E4D8A
:1010D000002B4ED18D494FF4E1308D4B98470621BE
:1010E0008C4B8D4898478D4BA2684FF48001596016
:1010F0004FF480211A609960E2684FF48071D960E2
:1011000010211961032A4FF480412A6059611E465B
:1011100003D983498348844B98472B68032B03D911
:1011200082498348804B98470121824B77489847F2
:10113000814AF168C2F1005303F53C43494219402A
:10114000B368E260A3607369B161A382336921610E
:10115000E3822B68032B02D97848734B98472B689E
:10116000032B67D9E38AA28AA1686F4E7448B047FF
:1011700060E0022B3DD12B682769032BD4F808804F
:10118000E668DFF8989109D9D9F80430424600930F
:10119000394633466B48DFF890A1D047D9F80400B0
:1011A000694B38443118984750B12B68032B02D94A
:1011B00066485D4B98470023A3600423636036E1D3
:1011C000564B324658684146614B384498472B6825
:1011D00040B1032B02D95F48534B98470023A360CB
:1011E0000223EBE7032B02D95B484F4B9847A660DD
:1011F00020E0032B20D12A68E368484E032AD4F864
:101200001080A768B36107D97268414600925348BD
:101210003A46DFF81491C8477168514BB2694144AE
:10122000384698472B68032B02D94E483E4B9847C7
:10123000B369A3600023C1E7012B23D12B68032BE3
:1012400002D94948384B9847344E3F4B7068B168D3
:101250000144984730B12B68032BAED94348324B39
:101260009847AAE7424B706898472B6830B1032B28
:1012700002D940482C4B984706239FE7032BD9D926
:101280003D48AFE0042B1AD12B68032B02D93B4811
:10129000254B9847214AA36851695068384E03FB93
:1012A000010000231A460144B0472B6818B1032BF4
:1012B00083D93448D3E7032BBCD9334892E0052BBC
:1012C0006CD12B68032B02D93048174B9847134A2F
:1012D000A368516950682E4E03FB010000231A4693
:1012E0000144B0472B6830B1032B02D929480E4B7B
:1012F0009847052362E7032B9CD9274872E000BF7B
:10130000C11A002050140E40B8280020006CDC02E6
:101310009118002005240020000A0E40C02800205B
:10132000F81E0020FD1E0020D5170020291F0020D8
:10133000321F0020E91B0020E42900203E1F00206E
:10134000671F0020AB1F0020E11D002000200020AF
:10135000351C0020182000203420002049200020C7
:10136000F51700209D200020B1200020CB20002078
:10137000051C0020E4200020FF200020192100206F
:10138000011D00202D210020412100205C21002092
:10139000711D00207221002088210020062B24D1FD
:1013A000A36843B92B68032B02D92C482C4B9847D0
:1013B000207B2C4B07E02B68032B02D92A48284BB3
:1013C0009847207B294B9847C0B22B6830B1032B3C
:1013D00002D92748224B98470F23EFE6032B7FF6CD
:1013E00029AF24481E4B984724E7152B09D12B68B9
:1013F000032B02D920481A4B9847204A204B1A60E9
:10140000FEE7122B13D12B68032B02D91D48144B76
:1014100098471D4BA06898472B6818B1032BDBD960
:101420001A48D7E7032B7FF605AF1948DAE72B6890
:10143000032B04D994E806001648094B9847236803
:10144000DB432360144B1B68012B02D10620134B96
:101450009847002002B0BDE8F08700BFA52100201A
:10146000D5170020C91E0020C6210020951E00208F
:10147000E5210020FA2100200F2200200D0000A508
:1014800000140E40242200202524002042220020A7
:10149000602200207E220020C0280020F5180020B5
:1014A000684620F007018D4619B572B6114B1A68CF
:1014B0009AB91149114A1248824204D251F8044F94
:1014C00042F8044BF8E70F4A0F4900208A4202D243
:1014D00042F8040BFAE701221A606C460D4DAD4646
:1014E0000A490B4B01209847A546BDE8194085469F
:1014F000704700BFDC2800208424002088240020BE
:10150000C0280020C0280020E4290020401000202E
:10151000C1100020FCBF0020034610B5013911F8AE
:10152000012F1C1A12B103F8012BF8E7204610BD59
:10153000092B70B502F1FF3205460E461C4601D854
:10154000014606E00A23B4FBF3F3FFF7F1FF291885
:1015500007E0002AA1EB050003DD01F8016B013A69
:10156000F7E70A22B4FBF2F302FB134330330B70AC
:10157000013070BDF8B583EAE374A4EBE374092C81
:10158000164605460F4602F1FF320AD9002B4FF0EE
:101590000A03B4FBF3F3B8BF5B42FFF7EBFF2A1873
:1015A00013E0002BB8BFB21E111A2944002902DD36
:1015B00000F8017BF8E7002B22EAE27005EB00025D
:1015C000BFBF2D232B54013201300A21B4FBF1F3AC
:1015D00001FB1343303313700130F8BDF7B5089C9D
:1015E00005465FEA141E0F461E4602F1FF3201D186
:1015F000014605E0CDF800E0FFF7F0FF291807E00D
:10160000002AA1EB050003DD01F8017B013AF7E7B1
:1016100004F00F03092B01D8303303E00EB1373348
:1016200000E0573301300B7003B0F0BD2DE9F74FE8
:101630000F46044608B100210170DFF80491DFF87D
:1016400004A1DFF804810025117831B9AF424FF0D1
:1016500000036AD9237028466DE0BD42F6D22529E1
:1016600002D00132217004E05178252904D1217083
:10167000023201350134E7E7302914BF013202326A
:10168000964618BF202100229EF800007646A0F161
:10169000300CBCF1090F0EF1010E07D802EB8202EB
:1016A00000EB4200303800F0FF02EDE702EB050EE0
:1016B00077453CBF7A1BD2B2692819D00BD8632872
:1016C0002BD0642814D0582833D103F1040B1B68A5
:1016D000009301231EE0752810D0782815D07328B8
:1016E00027D103F1040B19682046144B98470AE0F0
:1016F00003F1040B20461B68C84704E003F1040B08
:1017000020461B68D0475B460BE003F1040B1B68C7
:10171000009300232046C047F5E71A680120227095
:101720000433721C044405448EE704F8013C681E2F
:1017300001E04FF0FF3003B0BDE8F08F1915002035
:101740007515002031150020DD15002010B4034C64
:101750001346A4460A4610BC642160472D1600209B
:10176000F0B5A3B006468E466C466F460F4B03F1AC
:10177000200C254618685968083303C563452C4674
:10178000F7D1186871462860094B09A89847632863
:10179000084B05DD084A38461268D1689847FEE7CD
:1017A000314609A8984723B0F0BD00BF9A22002017
:1017B0004D1700206D18002088240020034B0A4696
:1017C0001B6801469868024B184700BF8824002018
:1017D000611700200FB407B504A951F8040B044B9E
:1017E0000191984703B05DF804EB04B0704700BF67
:1017F000BD17002040EA01039B0730B501D1032A41
:1018000003D80346013B0A4412E00C46051F54F876
:10181000043B45F8043F131B0B44032BF7D8141F5C
:1018200024F0030404340319214402F00302E9E71D
:10183000914204D011F8014B03F8014FF8E730BD95
:10184000084B10B51B6804469A688A4202D0DB68D0
:10185000994204D1E0B2044B9847204610BD4FF0A6
:10186000FF3010BD88240020F5180020F8B505468B
:101870000E460446054F601B14F8013B23B1184681
:101880003146B847431CF6D1F8BD00BF41180020CF
:1018900030B505460C4685B0124A01AB07CA83E84D
:1018A000070001211846104B9847104B4FF48072E7
:1018B0001A61AC22C3F80022B4FBF5F44FF40062C5
:1018C000C3F8042240F202222409C3F82042C3F8DC
:1018D00020235022C3F80022054B01221A7005B0C4
:1018E00030BD00BFC02200207D19002000040E4042
:1018F000E028002010B5084B04461B7823B907499F
:101900004FF4E130064B9847064A53699B05FCD5D6
:10191000044BDC6110BD00BFE0280020006CDC023D
:101920009118002000060E401F2810B401460F4AEF
:101930004FF001030ED890698B4033EA000007D1C5
:101940000B4B1B68042B0FD90A480B4B10BC1847D4
:10195000136109E0A0F12004D2F80801A34033EAA2
:101960000000EDD0C2F8003110BC704700040E40FA
:10197000B8280020CC220020D5170020F8B50D464D
:101980004E4E00F10C04002D00F0938014F8031C5F
:10199000062900F29080DFE801F0041B3142537108
:1019A000710054F80C2C14F8021CD04354F8083C75
:1019B000C9075A644CBF5A661A661F6F196F3940BF
:1019C000014019675F6F596F39400840586713E04D
:1019D00014F8021C54F8083C54F80C2CCF075A6435
:1019E0004CBF5A661A66196F11431967586F596FC1
:1019F000014021EA020159675A6057E014F8021CBD
:101A000054F8083C54F80C2CC8075A644CBF5A666A
:101A10001A66186F196F014021EA02010CE014F8F0
:101A2000021C54F8083C54F80C2CC9075A644CBFEB
:101A30005A661A66196F11431967596F1143DAE72D
:101A400014F8040CB04714F8021C54F8083C54F87D
:101A50000C2CCF075A644CBF5A661A6611F00A0F55
:101A600014BF1A625A62880702D5C3F8802003E0C7
:101A7000090748BFC3F884205A6116E014F8027CB5
:101A800054F8083C54F80C2C07F00400C0B2FF07CF
:101A90005A644CBF5A661A6608B11A6500E05A6566
:101AA00006290CBF1A635A631A611A60013D0C348F
:101AB00069E70120F8BD0020F8BD00BF291900200A
:101AC0004FF4004343607047C06870472DE9F84306
:101AD0001E460D4BA1F580051B688046042B17465A
:101AE000C5F30F25CCB205D923462A460748DFF8AF
:101AF0002490C847064BC8F8003007B13D8006B1B6
:101B00003480BDE8F88300BFB8280020942300206B
:101B1000000A0E40D517002002F5800202EB0121D9
:101B200003B119607047000010B512020446C9B233
:101B300063B122F07F420C4B22F0FF0241F0B4412E
:101B40001B68114300209847A0680AE022F07F42FA
:101B500041F0B44122F0FF020A434260A068C3078B
:101B6000FCD500F0060010BD08008000F0B50F465F
:101B700085B00146174C15461E4601AA002302A84F
:101B8000A047394600230DF1060203A8A0474FF6EF
:101B9000C071BDF80640BDF804300022194014F0B1
:101BA0003F031EBF4034E41AA4B22B4602980A4FEA
:101BB000B8473346002221460398B847074B1B68B5
:101BC000042B04D9326829680548064B984705B0AC
:101BD000F0BD00BFCD1A0020191B0020B82800203E
:101BE000C5230020D517002010B50C46024B034832
:101BF0009847034B1C6010BDFB230020000A0E40D9
:101C0000BC28002013B501460DF102036A4601A865
:101C1000054CA047054B00221B6805210198044C88
:101C2000A04702B010BD00BFCD1A0020BC28002084
:101C3000291B00202DE9F04F85B00F4616460146BE
:101C40000DF1060301AA02A8274CA047DFF8A8A0BF
:101C5000DFF89880DFF8A490002E40D0BDF8064051
:101C600003ABC4F58074B44228BF34460022BDF8EB
:101C700004100298D047BDF806B0039D5A46294685
:101C80001A48C8472246394608EB0B00C847CBF52F
:101C9000807204EB0B00121B05EB0B01214492B286
:101CA0004044C847294605F58073C5EB08004258F3
:101CB00041F8042B9942FAD10D4BBDF804201B6862
:101CC000032102980B4DA84750B9BDF804302744B2
:101CD0000133361BADF80430ADF80600BCE73046E2
:101CE00005B0BDE8F08F00BFCD1A0020E428002029
:101CF000BC280020291B0020191B0020F5170020FC
:101D00007FB515461C4602AA03AB154EB0470DB170
:101D1000029B2B600CB1039B2360124C00236A468C
:101D2000029901A8A04700230DF102020399184669
:101D3000A0470D4D0D4CBDF80020BDF80230934278
:101D40000AD9236808210198A84730B9BDF80030A6
:101D50004033ADF80030EEE7002004B070BD00BFA6
:101D60006D1B0020CD1A0020291B0020BC2800205C
:101D70007FB515461C4602AA03AB154EB0470DB100
:101D8000029B2B600CB1039B2360124C00236A461C
:101D9000029901A8A04700230DF1020203991846F9
:101DA000A0470D4D0D4CBDF80020BDF80230934208
:101DB0000AD9236809210198A84730B9BDF8003035
:101DC0004033ADF80030EEE7002004B070BD00BF36
:101DD0006D1B0020CD1A0020291B0020BC280020EC
:101DE00073B50D46194C014600236A4601A8A04769
:101DF0000023294618460DF10202A047BDF8023023
:101E00000022C3F387159B06114B18BF0135BDF89F
:101E100000401B684FF00A0101980E4E18BFEDB24A
:101E2000B0470D4B01989847C4F387140023012253
:101E3000AC4208D202FA04F1014204F1010418BFD5
:101E40000133E4B2F4E7184602B070BDCD1A0020A9
:101E5000BC280020291B0020C91A002070B5094B9E
:101E6000094C054600220D211B682046074EB0474D
:101E70002046074B98470123AB40034214BF012083
:101E8000002070BDBC280020000A0E40291B002045
:101E9000C91A002010B5084B0446984748B9074BAB
:101EA0002246074C1B68A446BDE810400B2105489C
:101EB0006047002010BD00BF5D1E0020BC28002030
:101EC000291B0020000A0E4010B5074B0446984716
:101ED00048B1064B2246064C1B68A446BDE810409C
:101EE0000C210448604710BD5D1E0020BC28002066
:101EF000291B0020000A0E40322E3134002D492DBE
:101F0000202D2D20496E7465726E616C20466C61C7
:101F100073682053414D2D4241204170706C6574AF
:101F2000202573202D2D0A0D0053414D33532D458F
:101F30004B002D492D202D2D2025730A0D002D49F4
:101F40002D2062756666657253697A65203A202590
:101F5000642020627566666572416464723A20305E
:101F6000782578200A0D002D492D206D656D6F7242
:101F70007953697A65203A202564206C6F636B522F
:101F80006567696F6E53697A65203A2030782578E5
:101F9000206E756D626572734C6F636B426974730A
:101FA000203A2030782578200A0D002D492D205721
:101FB00052495445206174206F66667365743A20F7
:101FC0003078257820627566666572206174203AE3
:101FD0002030782578206F663A20307825782042A6
:101FE000797465732028666C61736820626173651B
:101FF0002061646472203A2030782578290A0D0027
:102000002D492D204572726F722070616765206CBA
:102010006F636B65640A0D002D492D204572726F48
:1020200072207772697465206F7065726174696F70
:102030006E0A0D002D492D20577269746520616369
:102040006869657665640A0D002D492D2052454169
:1020500044206174206F66667365743A2030782579
:102060007820627566666572206174203A20307847
:102070002578206F663A203078257820427974657B
:10208000732028666C6173682062617365206164E7
:102090006472203A2030782578290A0D002D492DC8
:1020A00020526561642061636869657665640A0D24
:1020B000002D492D2046554C4C204552415345207A
:1020C000636F6D6D616E64200A0D002D492D2045F2
:1020D00072726F722070616765206C6F636B6564EC
:1020E000200A0D002D492D20466C61736820657211
:1020F000617365206661696C656421200A0D002D9D
:10210000492D2046756C6C20657261736520616392
:102110006869657665640A0D002D492D204C4F4392
:102120004B20636F6D6D616E64200A0D002D492D8B
:10213000204C6F636B206661696C656421200A0D19
:10214000002D492D204C6F636B20736563746F7293
:102150002061636869657665640A0D002D492D204C
:10216000554E4C4F434B20636F6D6D616E64200A7A
:102170000D002D492D20556E6C6F636B20666169D3
:102180006C656421200A0D002D492D20556E6C6F61
:10219000636B20736563746F722061636869657631
:1021A00065640A0D002D492D20444541435449568C
:1021B000415445532047504E564D20636F6D6D611D
:1021C0006E64200A0D002D492D204143544956418B
:1021D0005445532047504E564D20636F6D6D616ED0
:1021E00064200A0D002D492D2047504E564D206683
:1021F00061696C656421200A0D002D492D2047502E
:102200004E564D2061636869657665640A0D002D40
:10221000492D20524553455420636F6D6D616E64A6
:10222000200A0D002D492D205245414420554E498C
:1022300051554520494420636F6D6D616E64200ADD
:102240000D002D492D205265616420556E69717510
:1022500065204944206661696C656421200A0D008F
:102260002D492D205265616420556E697175652078
:1022700049442061636869657665640A0D002D49EB
:102280002D2009456E64206F66204170706C657466
:102290002025782025782E0A0D00737464696F2E2E
:1022A000633A20696E637265617365204D41585FC2
:1022B000535452494E475F53495A450A0D00000096
:1022C00000060000000E0E400B0000002D442D20E3
:1022D000504D435F456E61626C6550657269706810
:1022E0006572616C3A20636C6F636B206F6620705F
:1022F00065726970686572616C202575206973204C
:10230000616C726561647920656E61626C65640AF6
:102310000D002D442D20504D435F44697361626C64
:10232000655065726970686572616C3A20636C6FA4
:10233000636B206F66207065726970686572616C8E
:10234000202575206973206E6F7420656E61626C44
:1023500065640A0D002D442D20456E61626C652078
:10236000616C6C2070657269706820636C6F636B60
:10237000730A0D002D442D2044697361626C652041
:10238000616C6C2070657269706820636C6F636B40
:10239000730A0D002D442D205472616E736C6174AC
:1023A00065642030782530385820746F207061675C
:1023B000653D256420616E64206F66667365743DBB
:1023C00025640A0D002D442D2041637475616C2035
:1023D0006C6F636B2072616E676520697320307863
:1023E00025303658202D203078253036580A0D00FB
:1023F000036843F0010303607047036823F001039F
:10240000036070470368090223F4706301F470618C
:102410000B4303607047036823F080731943016026
:10242000704700000346F8B10022026042608260FB
:10243000C2600E490E4A5160906810F00100FBD155
:102440004FF48001096819600A49096859600A490E
:102450000968996009490968D9600949044B5960BC
:102460009368DB07FCD57047012070470E00005AC7
:10247000000A0E4004004000080040000C0040002C
:042480000F00005AEF
:102488009024002000000000000000000000000070
:102498000100000000000000000000000000000033
:1024A8000000000000000000000000000000000024
:1024B8000000000000000000000000000000000014
:1024C8000000000000000000000000000000000004
:1024D80000000000000000000000000000000000F4
:0828B800040000000100000013
:0400000520001000C7
:00000001FF
