:020000042000DA
:10100000FCBF002051140020000000000000000080
:1010100000000000000000000000000000000000D0
:1010200000000000000000000000000000000000C0
:1010300000000000000000000000000000000000B0
:1010400000000000000000000000000000000000A0
:101050000000000000000000000000000000000090
:101060000000000000000000000000000000000080
:101070000000000000000000000000000000000070
:101080000000000000000000000000000000000060
:101090000000000000000000000000000000000050
:1010A0000000000000000000000000000000000040
:1010B0000000000000000000000000000000000030
:1010C00080B500AF014B984780BD00BF1D1D0020BB
:1010D000B0B590B000AF0346B9607A60FB73384B8F
:1010E00007F114041D4628686968AA68EB680FC4F4
:1010F0002B7C2370FB7B572B09D0572B02DC472B13
:1011000047D051E0582B53D0772B15D04CE04FF0FF
:1011100000033B617B683B61BA6807F1100310462E
:1011200019464FF00402274B98470346002B14BF83
:1011300000230123DBB23EE0BB68BB634FF030000D
:10114000214B98474FF078001F4B98474FF01C03F6
:10115000FB6312E0BB6B1A68FB6B42FA03F303F00C
:101160000F0307F14002D31813F82C3C1846164B16
:101170009847FB6BA3F10403FB63FB6B002BE9DADD
:101180004FF00A00104B98474FF00D000E4B984758
:101190000FE04FF001000D4B9847BB6803F10503CA
:1011A0007B637B6B984704E009480A4B984700E053
:1011B00000BF4FF00003184607F14007BD46B0BD21
:1011C000A83500202D280020FD1D0020CD2900205D
:1011D00094350020B11B002080B582B000AF4FF0E5
:1011E00000037B604FF000033B6007E00E4B984725
:1011F0000346232B02D14FF001037B607B68002B59
:10120000F4D007E0084B984703460A2B02D14FF071
:1012100001033B603B68002BF4D04FF001031846FC
:1012200007F10807BD4680BD491E002080B582B089
:1012300000AF4FF000037B6007E0094B984703467F
:101240002C2B02D14FF0010304E07B68002BF4D07B
:101250004FF00003184607F10807BD4680BD00BFE8
:10126000491E002090B58BB000AF4FF000037B62A9
:101270004FF000033B624FF00003FB614FF00003AF
:101280007B614FF000033B614FF00003FB7318E0FC
:10129000444B98470346FB733B6A03F101033B62EF
:1012A000FB7B572B08D0FB7B772B05D0FB7B472B99
:1012B00002D0FB7B582B04D14FF001037B62FB7BF8
:1012C000FB617B6A002BE3D04FF000037B830DE0D2
:1012D0007C8B344B98470346DAB207F128010B198F
:1012E00003F8242C7B8B03F101037B837B8B072B7F
:1012F000EED94FF000033B7307F1040318464FF09B
:1013000000014FF01002284B984702460B46134647
:101310007B61FB69472B02D0FB69772B0BD1234BF9
:101320009847FB69DAB27B69104619464FF0000214
:101330001F4B984731E01F4B98474FF000037B83CA
:101340000DE07C8B174B98470346DAB207F1280172
:101350000B1903F8242C7B8B03F101037B837B8B1C
:10136000072BEED94FF000033B7307F10403184637
:101370004FF000014FF010020B4B984702460B460E
:1013800013463B61094B9847FB69D9B27A693B69BF
:10139000084611461A46064B984707F12C07BD46EA
:1013A00090BD00BF491E0020192A0020D91100203D
:1013B000D11000202D12002080B500AF0D484FF055
:1013C00001010D4B98474FF480000C4B98474FF0AC
:1013D0003E000B4B98474FF03E00094B98474FF0AB
:1013E0003E00074B98474FF03E00054B9847054B92
:1013F0009847F8E7006CDC02B5270020E1270020C1
:10140000FD1D00206512002080B582B000AF78601D
:1014100039600948094B9847094B98474FF4E13028
:101420000849094B9847094B98474FF00003184665
:1014300007F10807BD4680BD50140E403D26002030
:10144000C1100020006CDC02751D0020B9130020C3
:10145000684620F007018D4681B583B000AF72B6B3
:101460001D4B1B68002B27D11C4B7B601C4B3B602A
:101470000BE07B681A683B681A603B6803F1040361
:101480003B607B6803F104037B603A68154B9A422A
:10149000EFD3154B3B6007E03B684FF000021A604A
:1014A0003B6803F104033B603A68104B9A42F3D364
:1014B000094B4FF001021A606C460F4DAD464FF0DC
:1014C00001000B490B4B9847A54607F10C07BD4699
:1014D000BDE8814085467047803A00207039002081
:1014E00070390020803A0020803A00208C3B002098
:1014F0004010002009140020FCBF002080B483B0FD
:1015000000AF78600B46FB707B68FA781A704FF07A
:101510000103184607F10C07BD4680BC704700BFA9
:1015200080B485B000AF786039604FF00003FB6095
:101530000FE03B681A787B681A707B6803F101033F
:101540007B603B6803F101033B60FB6803F101032F
:10155000FB603B681B78002BEBD1FB68184607F15A
:101560001407BD4680BC704780B586B000AFF860F8
:101570007A603B600B46FB724FF000037B617B6837
:1015800003F1FF337B603B68092B22D93A68224B79
:10159000A3FB02134FEAD303FA7AF86811467A687C
:1015A000FFF7E2FF78617B69FA68D318FB6013E00C
:1015B000FB7AF8681946194B9847FB6803F1010359
:1015C000FB607B6903F101037B617B6803F1FF33FF
:1015D0007B607B68002BEBDC39680F4BA3FB01239E
:1015E0004FEAD30213464FEA83039B184FEA4303A3
:1015F000CA1AD3B203F13003DBB2F8681946074BBD
:10160000984703467A69D3187B617B69184607F1CE
:101610001807BD4680BD00BFCDCCCCCCFD1400204A
:1016200080B586B000AFF8607A603B600B46FB7215
:101630004FF000037B613B68002B04DA3B68C3F189
:1016400000033B6101E03B683B617B6803F1FF33D2
:101650007B603B69092B24D93B68002B0FDA3A6980
:10166000354BA3FB02134FEAD303C3F10003FA7A0D
:10167000F86811467A68FFF7D3FF78610CE03A69A1
:101680002D4BA3FB02134FEAD303FA7AF8681146F5
:101690007A68FFF7C5FF78617B69FA68D318FB6049
:1016A0002BE03B68002B15DA7B6803F1FF337B608E
:1016B00010E0FB7AF8681946204B9847FB6803F165
:1016C0000103FB607B6903F101037B617B6803F12C
:1016D000FF337B607B68002BEBDC3B68002B0CDA74
:1016E000F8684FF02D01154B984703467A69D318D7
:1016F0007B61FB6803F10103FB6039690E4BA3FBBF
:1017000001234FEAD30213464FEA83039B184FEAA3
:101710004303CA1AD3B203F13003DBB2F8681946A7
:10172000064B984703467A69D3187B617B69184654
:1017300007F11807BD4680BDCDCCCCCCFD140020F0
:1017400080B588B002AFF8607A600A46FA72BB7260
:101750004FF000037B617B6803F1FF337B603B6AE2
:101760004FEA1313002B24D03B6A4FEA1311FA7A85
:10177000BB7A0091F86811467A68FFF7E1FF0346EB
:101780007A69D3187B617B69FA68D318FB6013E030
:10179000FB7AF8681946244B9847FB6803F101036C
:1017A000FB607B6903F101037B617B6803F1FF331D
:1017B0007B607B68002BEBDC3B6A03F00F03092B9B
:1017C0000CD83B6ADBB203F00F03DBB203F130034A
:1017D000DBB2F8681946144B98471BE0BB7A002B24
:1017E0000CD03B6ADBB203F00F03DBB203F137032B
:1017F000DBB2F86819460C4B98470BE03B6ADBB24A
:1018000003F00F03DBB203F15703DBB2F8681946AC
:10181000054B98477B6903F101037B617B6918469F
:1018200007F11807BD4680BDFD14002090B58BB0B0
:1018300002AFF860B9607A603B604FF00003BB61B3
:101840004FF000037B61FB68002B00F01C81FB68FC
:101850004FF000021A7016E17B681B78252B10D020
:101860007B681A78FB681A70FB6803F10103FB6060
:101870007B6803F101037B607B6903F101037B61FA
:1018800002E17B6803F101031B78252B10D1FB6873
:101890004FF025021A70FB6803F10103FB607B68BF
:1018A00003F102037B607B6903F101037B61EBE0E1
:1018B0004FF02003FB774FF00003BB777B6803F109
:1018C00001037B607B681B78302B1BD14FF030030A
:1018D000FB777B6803F101037B6013E0BB7F1A4653
:1018E0004FEA8202D3184FEA4303DAB27B681B78CF
:1018F000D318DBB2A3F13003BB777B6803F101039C
:101900007B6000E000BF7B681B782F2B03D97B68CE
:101910001B78392BE2D9BA7F7B69D3181A46BB688A
:101920009A4205D9BB68DAB27B69DBB2D31ABB77BE
:101930007B681B78A3F15803202B00F2948001A24E
:1019400052F823F0191A0020671A0020671A0020A5
:10195000671A0020671A0020671A0020671A002003
:10196000671A0020671A0020671A0020671A0020F3
:101970004F1A0020C9190020671A0020671A00209A
:10198000671A0020671A0020C9190020671A002072
:10199000671A0020671A0020671A0020671A0020C3
:1019A000671A0020671A0020671A0020671A0020B3
:1019B000391A0020671A0020E1190020671A002058
:1019C000671A0020F9190020BA7F3B6803F104016F
:1019D00039601B68F97FF8683D4CA047B86145E065
:1019E000BA7F3B6803F1040139601B68F97FF8682E
:1019F000384CA047B86139E0BA7F3B6803F1040175
:101A000039601968FB7F0091F86819464FF00003B0
:101A1000314CA047B86129E0BA7F3B6803F104016B
:101A200039601968FB7F0091F86819464FF001038F
:101A3000294CA047B86119E03B6803F104023A6001
:101A40001B68F8681946254B9847B8610EE03B685B
:101A500003F104023A601B68DBB2F8681946204BB8
:101A60009847B86102E04FF0FF332CE07B6803F148
:101A700001037B60BB69FA68D318FB607A69BB69B4
:101A8000D3187B6100E000BF7B681B78002B04D07B
:101A90007A69BB689A42FFF4DFAE7A69BB689A4202
:101AA00004D2FB684FF000021A700BE0FB6803F1F0
:101AB000FF33FB60FB684FF000021A707B6903F193
:101AC000FF337B617B69184607F12407BD4690BD53
:101AD0002116002069150020411700202115002043
:101AE000FD14002090B585B000AFF860B9607A6051
:101AF000F8684FF06401BA687B68044CA04703465D
:101B0000184607F11407BD4690BD00BF2D180020F0
:101B1000B0B5A6B000AFF860B9607A60144B07F1B9
:101B200010041D460FCD0FC40FCD0FC42B682360CA
:101B300007F134031846B9687A680E4B9847034694
:101B4000632B09DD0C4B1B68DB6807F110021046A4
:101B500019460A4B9847FEE707F134031846F9681F
:101B6000064B98470346184607F19807BD46B0BD97
:101B7000BC350020E51A0020603A0020C91C002076
:101B800080B582B000AF78603960074B1B689B68F6
:101B9000184679683A68054B98470346184607F196
:101BA0000807BD4680BD00BF603A0020111B002021
:101BB0000FB480B582B000AF07F114033B60386901
:101BC0003968064B984778607B68184607F1080724
:101BD000BD46BDE8804004B0704700BF811B0020B7
:101BE00080B489B000AFF860B9607A60BB687B618F
:101BF000FB683B613B6903F00303002B1BD17B694E
:101C000003F00303002B16D17B68032B13D90FE0DD
:101C10007B691A683B691A603B6903F104033B6105
:101C20007B6903F104037B617B68A3F104037B60A0
:101C30007B68032BECD83B69FB617B69BB610BE0E4
:101C4000BB691A78FB691A70FB6903F10103FB6138
:101C5000BB6903F10103BB617B68002B0CBF002350
:101C60000123DBB27A6802F1FF327A60002BE7D100
:101C7000FB68184607F12407BD4680BC704700BFCB
:101C800080B582B000AF786039600D4B1B689A68F0
:101C90003B689A4205D00A4B1B68DA683B689A4257
:101CA00006D17B68DBB21846064B98477B6801E09B
:101CB0004FF0FF33184607F10807BD4680BD00BF4F
:101CC000603A0020FD1D002080B584B000AF786030
:101CD00039604FF00003FB6014E07B681B78184606
:101CE00039680D4B98470346B3F1FF3F02D14FF0DF
:101CF000FF330CE0FB6803F10103FB607B6803F139
:101D000001037B607B681B78002BE6D1FB681846DB
:101D100007F11007BD4680BD811C002080B500AFD3
:101D20000E4B4FF4C0621A600D4B1B6A03F08073B8
:101D3000002B11D04FF000004FF00001094B9847E5
:101D4000094B9847094B98474FF008004FF00101A5
:101D50004FF01002064B984780BD00BF000A0E40AE
:101D600000040E408D210020B520002025200020F9
:101D70000122002080B586B000AF786039601A4A31
:101D800007F1080307CA83E80700184B7B6107F1D6
:101D9000080318464FF00101154B9847154B4FF4B7
:101DA00080721A617B694FF0AC021A607B694FF454
:101DB00000625A603A687B68B2FBF3F34FEA131291
:101DC0007B691A627B6940F20222C3F820217B6999
:101DD0004FF050021A60084B4FF001021A7007F1E1
:101DE0001807BD4680BD00BFE035002000060E404C
:101DF000BD24002000040E40843A002080B584B049
:101E000000AF0346FB710C4BFB600C4B1B78002BA7
:101E100004D14FF4E1300A490A4B984700BFFB68F0
:101E20005B6903F40073002BF9D0FA79FB68DA617F
:101E300007F11007BD4680BD00060E40843A002021
:101E4000006CDC02751D002080B582B000AF0C4B29
:101E50007B600C4B1B78002B04D14FF4E1300A4916
:101E60000A4B984700BF7B685B6903F00103002BB6
:101E7000F9D07B689B69184607F10807BD4680BD0D
:101E800000060E40843A0020006CDC02751D002024
:101E900080B400AF084B084A126B22F0030242F0F4
:101EA00002021A6300BF044B9B6E03F00803002B71
:101EB000F9D0BD4680BC704700040E4080B400AF2E
:101EC000074B074A126B42F003021A6300BF044B30
:101ED0009B6E03F00803002BF9D0BD4680BC704711
:101EE00000040E4080B400AF084B084A126B22F089
:101EF000030242F001021A6300BF044B9B6E03F021
:101F00000803002BF9D0BD4680BC704700040E408A
:101F100080B400AF074B074A126B22F003021A632A
:101F200000BF044B9B6E03F00803002BF9D0BD46A5
:101F300080BC704700040E4080B483B000AF78606E
:101F4000094B094A126B22F070017A680A431A633E
:101F500000BF054B9B6E03F00803002BF9D007F17F
:101F60000C07BD4680BC704700040E4080B582B0AF
:101F700000AF78607B681F2B1FD8264B9A697B685F
:101F80004FF0010101FA03F31A407B684FF00101A1
:101F900001FA03F39A4208D11F4B1B68042B34D972
:101FA0001E4879681E4B98472FE01A4B7A684FF00D
:101FB000010101FA02F21A6127E07B68A3F1200314
:101FC0007B60144BD3F808217B684FF0010101FAC4
:101FD00003F31A407B684FF0010101FA03F39A42C0
:101FE0000BD10D4B1B68042B0FD97B6803F1200329
:101FF0000A4819460A4B984707E0064B7A684FF0A3
:10200000010101FA02F2C3F8002107F10807BD46F9
:1020100080BD00BF00040E40643A0020C43600209A
:10202000B11B002080B483B000AF204B1B6A7B60E3
:102030007B6823F070037B601D4B1B684FEA032312
:102040004FEA03434FEA13437A68134343F45C13A4
:1020500043F029037B60154B7A681A6200BF134B6B
:102060009B6E03F40033002BF9D000BF0F4B9B6E27
:1020700003F00803002BF9D07B6843F080737B608A
:102080000A4B7A681A6200BF084B9B6E03F48033D8
:10209000002BF9D000BF054B9B6E03F00803002B0B
:1020A000F9D007F10C07BD4680BC704700040E4014
:1020B0006C3A002080B400AF00BF1C4B9B6E03F055
:1020C0000103002BF9D0194A184B1B6A43F45C1327
:1020D00043F00103136200BF144B5B6A03F48033C7
:1020E000002BF9D0114A114B1B6A23F45C1323F027
:1020F000020343F45C1313620C4A0C4B1B6A43F05B
:102100009B7343F48033136200BF084B9B6E03F450
:102110008033002BF9D000BF044B9B6E03F0080303
:10212000002BF9D0BD4680BC704700BF00040E40B4
:1021300080B483B000AF786039607B68002B19D021
:102140000F4A104B1B684FEA032303F47C517B6852
:1021500003F1FF334FEA03400B4B034019433B6845
:10216000DBB20B43D36200BF054B9B6E03F004034D
:10217000002BF9D007F10C07BD4680BC704700BFAB
:1021800000040E40703A00200000FF0780B582B0C6
:1021900000AF786039607B68032B23D801A252F826
:1021A00023F000BFB5210020C1210020CD21002057
:1021B000D92100200D4B984738680D4B984711E006
:1021C0000C4B984738680A4B98470BE03868084B27
:1021D0009847094B984705E03868054B9847074BE7
:1021E000984700BF07F10807BD4680BD111F0020BA
:1021F000391F0020E51E0020911E0020BD1E00207A
:1022000080B584B000AFF860B9607A600A4B984737
:10221000F868B968094B984700BF094B9B6E03F0FB
:102220000803002BF9D04FF003007968054B98475D
:1022300007F11007BD4680BDE51E002031210020BA
:1022400000040E408D21002080B487B000AFF860FC
:10225000B9601346FB71FB68BA685A64FB79002BBE
:1022600003D0FB68BA685A6602E0FB68BA681A666F
:10227000FB681B6F7B61FB681A6FBB686FEA030129
:102280007B690B401A40FB681A67FB685B6F7B61D8
:10229000FB685A6FBB686FEA03017B690B401A4009
:1022A000FB685A67FB68BA685A6007F11C07BD46AD
:1022B00080BC704780B487B000AFF860B960134647
:1022C000FB71FB68BA685A64FB79002B03D0FB688A
:1022D000BA685A6602E0FB68BA681A66FB681B6F48
:1022E0007B61BA687B691A43FB681A67FB685B6F9E
:1022F0007B61FB685A6FBB686FEA03017B690B4027
:102300001A40FB685A67FB68BA685A6007F11C07F5
:10231000BD4680BC704700BF80B487B000AFF86096
:10232000B9601346FB71FB68BA685A64FB79002BED
:1023300003D0FB68BA685A6602E0FB68BA681A669E
:10234000FB681B6F7B61FB681A6FBB686FEA030158
:102350007B690B401A40FB681A67FB685B6F7B6107
:10236000BA687B691A43FB685A67FB68BA685A60A7
:1023700007F11C07BD4680BC704700BF80B487B022
:1023800000AFF860B9601346FB71FB68BA685A6425
:10239000FB79002B03D0FB68BA685A6602E0FB6841
:1023A000BA681A66FB681B6F7B61BA687B691A435F
:1023B000FB681A67FB685B6F7B61BA687B691A43CD
:1023C000FB685A67FB68BA685A6007F11C07BD468C
:1023D00080BC704780B485B000AFF860B960134628
:1023E000FB71FB68BA685A64FB7903F00103002BA8
:1023F00003D0FB68BA685A6602E0FB68BA681A66DE
:10240000FB7903F00A03002B03D0FB68BA681A6259
:1024100002E0FB68BA685A62FB7903F00203002B02
:1024200004D0FB68BA68C3F8802008E0FB7903F0A9
:102430000803002B03D0FB68BA68C3F88420FB684C
:10244000BA685A61FB68BA681A6007F11407BD469A
:1024500080BC704780B485B000AFF860B960FA7195
:10246000BB71FB68BA685A643B7E002B03D0FB68E3
:10247000BA685A6602E0FB68BA681A66BB79002B34
:1024800003D0FB68BA681A6502E0FB68BA685A654F
:10249000FB79002B03D0FB68BA681A6302E0FB6883
:1024A000BA685A63FB68BA681A61FB68BA681A604E
:1024B00007F11407BD4680BC704700BF90B585B0DA
:1024C00002AF786039609FE07B685B7A062B00F290
:1024D000908001A252F823F0F52400201B25002053
:1024E00041250020672500208D250020AF250020F4
:1024F000AF2500207B6859687B681A687B689B7AE7
:1025000003F00103002B0CBF00230123DBB20846BC
:1025100011461A46424B98476EE07B6859687B68C3
:102520001A687B689B7A03F00103002B0CBF002321
:102530000123DBB2084611461A463A4B98475BE046
:102540007B6859687B681A687B689B7A03F0010393
:10255000002B0CBF00230123DBB2084611461A46AC
:10256000314B984748E07B6859687B681A687B68FC
:102570009B7A03F00103002B0CBF00230123DBB285
:10258000084611461A46294B984735E07B681B7A66
:102590001846274B98477B6859687B681A687B68A0
:1025A0009B7A084611461A46224B984724E07B68DE
:1025B00058687B6819687B685B7A062B14BF002318
:1025C0000123DBB21A467B689B7A03F00403002BDD
:1025D0000CBF00230123DBB27C68A47A04F0010461
:1025E000002C0CBF00240124E4B20094124CA0473C
:1025F00002E04FF000030DE07B6803F10C037B6009
:102600003B6803F1FF333B603B68002B7FF45CAF1A
:102610004FF00103184607F10C07BD4690BD00BFFF
:1026200049220020B5220020192300207D2300200C
:102630006D1F0020D52300205524002080B483B0D6
:1026400000AF78607B684FF400425A6007F10C07D6
:10265000BD4680BC704700BF80B483B000AF7860D7
:102660007B68DB68184607F10C07BD4680BC7047E5
:1026700090B587B000AFF860B9607A603B60164BE8
:102680007B61BB68A3F580034FEA13237B82BB68A1
:102690009BB2DBB23B82114B1B68042B05D97A8AB3
:1026A0003B8A0F48B9680F4CA0477B69002B02D0CA
:1026B000FB687A691A607B68002B02D07B687A8A93
:1026C0001A803B68002B02D03B683A8A1A8007F1D7
:1026D0001C07BD4690BD00BF000A0E40643A0020B2
:1026E00090370020B11B002080B487B000AFF860A5
:1026F0007B600B467B8113463B817B894FEA03233A
:102700001A463B89D31803F580037B617B68002B55
:1027100002D07B687A691A6007F11C07BD4680BC4D
:10272000704700BF80B586B000AFF860B9607A60CE
:102730003B603B68002B1BD01C4B1B681A461C4B94
:102740001A601B4B1A687B684FEA032323F07F4310
:1027500023F0FF03B968C9B20B4343F0B4434FF011
:10276000000019469047FB689B6803F0060318E0D9
:102770007B684FEA032323F07F4323F0FF03BA680B
:10278000D2B2134343F0B442FB685A60FB689B68C3
:102790007B617B6903F00103002BF7D07B6903F0B9
:1027A0000603184607F11807BD4680BD08008000E3
:1027B000883A002080B582B000AF78603960054863
:1027C000054B9847054B3A681A6007F10807BD4664
:1027D00080BD00BF000A0E40E9380020783A002092
:1027E00090B587B000AF786007F1100107F10E02D5
:1027F00007F10C0308467968094CA0473A69094B70
:102800001B6810464FF005014FF00002064CA04730
:1028100078617B69184607F11C07BD4690BD00BF73
:1028200071260020783A00202527002090B58FB02F
:1028300000AFF860B9607A60464BFB6207F11C019B
:1028400007F11A0207F118030846F968424CA0473D
:1028500076E03B8BC3F580727B689A4238BF1346A3
:10286000BB62F9697A8B07F11403084611464FF0F1
:1028700000023A4CA0473B8BC3F100039AB2BB6AFB
:102880009BB2D31A9BB203F58073FB847B691A4613
:102890003B8BF86A11461A46314B98473B8BFA6AD4
:1028A000D3181846B968BA6A2D4B98473B8B1A461D
:1028B000BB6AD318FA6AD1183B8B1A467B69D218C7
:1028C000BB6AD3181A46FB8C084611461A46244B9D
:1028D00098477B693B634FF000037B630DE01D4B22
:1028E0007A6B53F822203B6B1A603B6B03F10403B5
:1028F0003B637B6B03F101037B637B6B3F2BEED967
:10290000F9697B8B1A46174B1B6808464FF0030189
:10291000154CA04738623B6A002B01D03B6A14E09B
:10292000BA68BB6AD318BB607A68BB6AD31A7B608B
:102930007B8B03F101039BB27B834FF000033B834E
:102940007B68002B85D14FF00003184607F13C0748
:10295000BD4690BD8C3A002071260020E92600205B
:10296000E11B0020783A00202527002090B585B093
:1029700000AF0346FB71114B1B6811484FF00D016E
:102980004FF000020F4CA047F8600D480E4B9847DF
:10299000B860FB794FF0010202FA03F31A46BB68F4
:1029A0001340002B02D04FF0010301E04FF0000371
:1029B000184607F11407BD4690BD00BF783A0020C5
:1029C000000A0E40252700205926002090B583B02C
:1029D00000AF0346FB71FB7918460B4B9847034643
:1029E000002B09D1FA79094B1B6809484FF00B01FC
:1029F000084CA047034601E04FF00003184607F1DA
:102A00000C07BD4690BD00BF6D290020783A00201C
:102A1000000A0E402527002030B443F66024C2F29D
:102A200000040D46134601462A46206830BC00F0DB
:102A300001B800BF2DE9F04F43F67C24C2F2000438
:102A400087B099460B46D4F8008002910590039216
:102A50001E4616F8017B08EB07023346527802F057
:102A60000802D2B2002AF3D12D2F00F0B3802B2F11
:102A700005BF04923646049216F8017B39F0100324
:102A800016D1D9F1010338BF0023302F07D07BB115
:102A90004FF00A0A4FF0000B4FF00A090BE03278B2
:102AA00002F0DF02582A00F09A80002B40F0A0804C
:102AB000CA464FEAE97B049A00244FF000451AB950
:102AC0004FF0FF346FF000452046294652465B46E2
:102AD00000F096F8204629465B4600240025009227
:102AE000524600F08DF84FF0000C02460B4600985D
:102AF000CDE900AB2AE0303FB9453BDDAB4208BF32
:102B0000A2422CBF0021012151EADC7C47D19D4229
:102B100008BF944214BF002101218742D4BF002185
:102B200001F0010100293AD1DDF804A04FF0010CB9
:102B300004FB0AF1DDF800A00AFB0511A4FB0A451D
:102B40004D19E41945EBE77516F8017B08EB070111
:102B5000497801F0040A5FFA8AFABAF1000FCAD183
:102B600011F0030106D0012914BF572137217F1A24
:102B7000B945C3DCBCF1FF3F14D0049B002B25D129
:102B8000039A3AB1BCF1000F1DD1029BDDF80CA0F5
:102B9000CAF800302046294607B0BDE8F08F4FF054
:102BA000FF3CD1E7049A00244FF000451AB94FF0DA
:102BB000FF346FF00045DDF814A02223039ACAF811
:102BC0000030002AE6D0013E0296DEE7644265EB63
:102BD0004505D5E7012216F8017B04924EE7777888
:102BE0004FF0100A4FF0000B02364FF0100962E769
:102BF0004FF0080A4FF0000B4FF008095BE700BFE9
:102C00004BB942B9002908BF002802D04FF0FF316C
:102C1000084600F03BB882B0EC462DE9005000F0C9
:102C20001DF8DDF804E002B00CBC70472DE9F84354
:102C30009046994606460F4600F02AF8089BA8FBE6
:102C4000004508FB01F800FB09825519341B67EBAE
:102C50000505C3E90045BDE8F88300BF2DE9F04153
:102C6000904606460F461D4600F0C8F900FB05F3E6
:102C7000A0FB084508FB0138069B4544341B67EB65
:102C80000505C3E90045BDE8F08100BF704700BFFE
:102C90002DE9F04F0025002985B01C46C0F249817E
:102CA000002CC0F241818C460F4682469146144664
:102CB00006461946002B4BD1624559D9B2FA82F328
:102CC00043B1C3F120020CFA03F720FA02F29C4050
:102CD00017439E404FEA1448384641461FFA84F98C
:102CE00000F016FB41468246384600F03FFC330CAC
:102CF00009FB0AF043EA014188420AD909190AF19D
:102D0000FF3205D2884284BFAAF1020A091900D80D
:102D10009246C0EB010B41465846B6B200F0F8FAB5
:102D200041460746584600F021FC09FB07F946EAF0
:102D30000141894507D97B1E0C1980F05781023F5C
:102D4000A14540F2538147EA0A404FF0000804E0F1
:102D5000634558D94FF0000840460246434615B136
:102D6000524263EB43031046194605B0BDE8F08FAD
:102D700022B90120114600F0CBFA0446B4FA84F3DC
:102D8000002B40F0DC803F1B4FEA14491FFA84FA05
:102D90004FF001084946384600F0BAFA49468346E2
:102DA000384600F0E3FB330C0AFB0BF043EA014129
:102DB00088420BD909190BF1FF3380F01581884245
:102DC00084BFABF1020B091940F20E810B1A494680
:102DD0001846019300F09CFA019B4946B6B207469B
:102DE000184600F0C3FB0AFB07FA46EA01418A4590
:102DF00006D97B1E0C1902D2023FA24500D81F46FD
:102E000047EA0B40A9E7B3FA83F4002C00F0E48012
:102E1000C4F1200301FA04F122FA03FA2CFA03FBAD
:102E20004AEA010A20FA03F80CFA04FC58464FEA71
:102E30001A4748EA0C08394602FA04F9CDF80C9012
:102E400000F066FA39468146584600F08FFB1FFABB
:102E50008AFC4FEA18430CFB09F043EA014398420D
:102E60000CD913EB0A0309F1FF3180F0C3809842BB
:102E700084BFA9F10209534440F2BC801B1A3946B1
:102E80001846CDF808C0019300F042FA019B39467C
:102E90001FFA88F88346184600F068FBDDF808C082
:102EA0000CFB0BF348EA01418B420CD911EB0A01F0
:102EB0000BF1FF3080F09C808B4284BFABF1020BA2
:102EC000514440F29580039F4BEA0940C91A1FFA0A
:102ED00080FCBAB24FEA1749070C02FB0CF802FB60
:102EE00007F209FB0C2309FB07F903EB18439A428D
:102EF00088BF09F5803909EB1349494510D31FFAFA
:102F000088F814BF0022012206FA04F408EB0343F8
:102F10009C422CBF002302F00103002B3FF415AFAD
:102F200001384FF0000818E7524263EB4303ED43CA
:102F3000B9E6404261EB41014FF0FF35B0E69C40FD
:102F4000C3F1200B27FA0BF807FA03F74FEA1449ED
:102F50004046494626FA0BFB9E4000F0D9F9494607
:102F60001FFA84FA4BEA070B03464046019300F030
:102F7000FDFA019B4FEA1B420AFB03F042EA0141C2
:102F8000884206D95A1E091936D2884234D9023BE2
:102F900009190F1A49463846019300F0B9F9494614
:102FA0001FFA8BFB8046384600F0E0FA019B0AFBD3
:102FB00008F74BEA01418F420AD9091908F1FF329B
:102FC00005D28F4284BFA8F10208091900D89046A3
:102FD000CF1B48EA0348DDE60120634528BF524580
:102FE000A0467FF6BAAEB5E69B46EFE61F46AAE6D8
:102FF000834668E7894641E71346CAE72DE9F04F63
:10300000064683B00D46144607468846002B4AD133
:103010008A4255D9B2FA82F34BB1C3F1200201FAC8
:1030200003F820FA02F29C4042EA08089F40250C6F
:10303000404629461FFA84FA00F06AF9294681467B
:10304000404600F093FA3B0C0AFB09F043EA0141C9
:1030500088420AD9091909F1FF3205D2884284BF92
:10306000A9F10209091900D89146C0EB01082946C7
:103070004046BFB200F04CF929460646404600F0F3
:1030800075FA0AFB06FA47EA01418A4507D9731E19
:103090000C1980F02281023EA24540F21E8146EAD0
:1030A0000940002658E08B4254D8B3FA83F4002C30
:1030B00056D18B4228BF82424CD8264601204BE095
:1030C00022B90120114600F023F90446B4FA84F332
:1030D000002B40F0B9802D1B4FEA14481FFA84FAE8
:1030E00001264146284600F013F94146814628460C
:1030F00000F03CFA3B0C0AFB09F043EA014188422C
:103100000BD9091909F1FF3380F0E980884284BFA7
:10311000A9F10209091940F2E280C0EB010B414616
:103120005846BFB200F0F4F841460546584600F054
:103130001DFA0AFB05FA47EA01418A4507D96B1EC9
:103140000C1980F0CE80023DA24540F2CA8045EACB
:10315000094001E000263046314603B0BDE8F08F5B
:10316000C4F1200103FA04F322FA01F825FA01F769
:1031700048EA030820FA01F105FA04F538464FEA57
:1031800018490D43494602FA04F2019200F0C0F8D2
:1031900049468246384600F0E9F91FFA88F22F0CBA
:1031A00002FB0AF047EA0147B84206D917EB0807C5
:1031B0000AF1FF31C0F09F808A463F1A49463846DF
:1031C000009200F0A5F84946ADB28346384600F0BB
:1031D000CDF9009A02FB0BF745EA01418F4205D970
:1031E00011EB08010BF1FF327DD39346019B4BEAB3
:1031F0000A40C91B4FEA104C9DB24FEA134A83B2F2
:1032000005FB03F205FB0CF50AFB03530AFB0CFA62
:1032100003EB12439D4288BF0AF5803A0AEB134A3A
:1032200051450ED392B214BF0021012106FA04F6D3
:1032300002EB03439E422CBF002601F00106002E44
:103240008AD00138002687E79C40C3F1200225FA86
:1032500002FA26FA02F94FEA14485046414605FAA6
:1032600003F506FA03F700F053F8414649EA050969
:103270008346504600F07AF91FFA84FA4FEA194360
:103280000AFB0BF043EA0141884209D909190BF105
:10329000FF3338D2884284BFABF1020B091932D90F
:1032A0000D1A414628461FFA89F900F031F84146C7
:1032B0000646284600F05AF90AFB06F549EA01419C
:1032C0008D4206D9731E09191FD28D421DD9023EA7
:1032D00009194D1B46EA0B4603E71E46DFE69946F1
:1032E0001BE71D4633E78F4284BFABF1020B41441D
:1032F0003FF67CAF79E7B84284BFAAF1020A47449F
:103300003FF65BAF58E79B46CAE71E46E1E700BFC2
:103310004A1E08BF7047C0F02481884240F21681DF
:10332000114200F01781B0FA80F3B1FA81F2A2EBFA
:103330000303C3F11F0304A202EB03134FF00002C7
:103340009F4600BFAFF30080B0EBC17F00BF42EBF0
:10335000020228BFA0EBC170B0EB817F00BF42EB3F
:10336000020228BFA0EB8170B0EB417F00BF42EBAF
:10337000020228BFA0EB4170B0EB017F00BF42EB1F
:10338000020228BFA0EB0170B0EBC16F00BF42EB9F
:10339000020228BFA0EBC160B0EB816F00BF42EB1F
:1033A000020228BFA0EB8160B0EB416F00BF42EB8F
:1033B000020228BFA0EB4160B0EB016F00BF42EBFF
:1033C000020228BFA0EB0160B0EBC15F00BF42EB7F
:1033D000020228BFA0EBC150B0EB815F00BF42EBFF
:1033E000020228BFA0EB8150B0EB415F00BF42EB6F
:1033F000020228BFA0EB4150B0EB015F00BF42EBDF
:10340000020228BFA0EB0150B0EBC14F00BF42EB5E
:10341000020228BFA0EBC140B0EB814F00BF42EBDE
:10342000020228BFA0EB8140B0EB414F00BF42EB4E
:10343000020228BFA0EB4140B0EB014F00BF42EBBE
:10344000020228BFA0EB0140B0EBC13F00BF42EB3E
:10345000020228BFA0EBC130B0EB813F00BF42EBBE
:10346000020228BFA0EB8130B0EB413F00BF42EB2E
:10347000020228BFA0EB4130B0EB013F00BF42EB9E
:10348000020228BFA0EB0130B0EBC12F00BF42EB1E
:10349000020228BFA0EBC120B0EB812F00BF42EB9E
:1034A000020228BFA0EB8120B0EB412F00BF42EB0E
:1034B000020228BFA0EB4120B0EB012F00BF42EB7E
:1034C000020228BFA0EB0120B0EBC11F00BF42EBFE
:1034D000020228BFA0EBC110B0EB811F00BF42EB7E
:1034E000020228BFA0EB8110B0EB411F00BF42EBEE
:1034F000020228BFA0EB4110B0EB011F00BF42EB5E
:10350000020228BFA0EB0110B0EBC10F00BF42EBDD
:10351000020228BFA0EBC100B0EB810F00BF42EB5D
:10352000020228BFA0EB8100B0EB410F00BF42EBCD
:10353000020228BFA0EB4100B0EB010F00BF42EB3D
:10354000020228BFA0EB0100104670470CBF01200B
:1035500000207047B1FA81F2C2F11F0220FA02F096
:10356000704708B14FF0FF30FFF790BB0029F8D04B
:103570002DE90340FFF7CCFEBDE8064002FB00F357
:10358000A1EB0301704700BF546573745072696EFC
:1035900074000000556E6B6E6F776E20636F6D6DFB
:1035A000616E642E0000000030313233343536371E
:1035B00038394142434445462E0000007374646923
:1035C0006F2E633A20696E637265617365204D41A9
:1035D000585F535452494E475F53495A450A0D00AC
:1035E00000060000000E0E400B000000253032588F
:1035F000200000000A0D00003078253038583A20AD
:10360000000000002530325825303258253032581D
:1036100025303258200000002530325800000000CC
:10362000202000000A0D57726974652061206E75B4
:103630006D62657220616E642070726573732045DF
:103640004E544552206F72205350414345210A0D7C
:10365000000000000A0D27256327206E6F7420618B
:10366000206E756D626572206F72207369676E28B7
:103670002B2F2D29210A0D000A0D546865206E7527
:103680006D626572206861766520746F20626520C6
:103690006265747765656E20256420616E642025FF
:1036A000640A0D000A0D4974206973206E6F74203E
:1036B0006120686578612063686172616374657216
:1036C000210A0D002D442D20504D435F456E61624F
:1036D0006C655065726970686572616C3A20636CE4
:1036E0006F636B206F6620706572697068657261C8
:1036F0006C20257520697320616C72656164792086
:10370000656E61626C65640A0D0000002D442D2019
:10371000504D435F44697361626C655065726970B6
:10372000686572616C3A20636C6F636B206F662012
:103730007065726970686572616C202575206973A7
:10374000206E6F7420656E61626C65640A0D000006
:103750002D442D20456E61626C6520616C6C20707B
:10376000657269706820636C6F636B730A0D00008B
:103770002D442D2044697361626C6520616C6C205E
:1037800070657269706820636C6F636B730A0D00FB
:103790002D442D205472616E736C61746564203009
:1037A000782530385820746F20706167653D256436
:1037B00020616E64206F66667365743D25640A0D32
:1037C0000000000000202020202020202020282889
:1037D00028282820202020202020202020202020D1
:1037E0002020202020881010101010101010101011
:1037F0001010101010040404040404040404041041
:1038000010101010101041414141414101010101CE
:103810000101010101010101010101010101010198
:1038200010101010101042424242424202020202A4
:103830000202020202020202020202020202020268
:103840001010101020000000000000000000000018
:103850000000000000000000000000000000000068
:103860000000000000000000000000000000000058
:103870000000000000000000000000000000000048
:103880000000000000000000000000000000000038
:103890000000000000000000000000000000000028
:1038A0000000000000000000000000000000000018
:1038B0000000000000000000000000000000000008
:0838C000000000000000000000
:1038C80080B483B000AF78607B681B6843F0010266
:1038D8007B681A6007F10C07BD4680BC704700BFC3
:1038E80080B483B000AF78607B681B6823F0010266
:1038F8007B681A6007F10C07BD4680BC704700BFA3
:1039080080B485B000AF78600B46FB707B681B689D
:10391800FB60FB6823F47063FB60FB784FEA0323CA
:1039280003F47063FA681343FB607B68FA681A60F3
:1039380007F11407BD4680BC704700BF80B483B050
:1039480000AF786039607B681B6823F080723B6841
:103958001A437B681A6007F10C07BD4680BC7047A4
:0839680028F3FF7F01000000BD
:103970000000000000000000010000000000000046
:103980000000000000000000000000000000000037
:103990000000000000000000000000000000000027
:1039A0000000000000000000000000000000000017
:1039B0000000000000000000000000000000000007
:1039C00000000000000000000000000000000000F7
:1039D00000000000000000000000000000000000E7
:1039E00000000000000000000000000000000000D7
:1039F00000000000000000000000000000000000C7
:103A000000000000000000000000000000000000B6
:103A100000000000000000000000000000000000A6
:103A20000000000000000000000000000000000096
:103A30000000000000000000000000000000000086
:103A40000000000000000000000000000000000076
:103A50000000000000000000000000000000000066
:103A60007039002004000000010000000800000080
:103A7000010000000300000001000000C437002026
:0400000520001000C7
:00000001FF
